:020000000039c5
:020001000010ed
:020002000039c3
:020003000aa34e
:020004000039c1
:020005000aac43
:020006000039bf
:020007000ab33a
:020008000039bd
:020009000abf2c
:02000a000000f4
:02000b000000f3
:02000c000000f2
:02000d000000f1
:02000e000000f0
:02000f000000ef
:020010000046a8
:020011000a2eb5
:020012000010dc
:020013000b2eb2
:020014000011d9
:020015000f2eac
:020016002a2797
:02001700072eb2
:020018001caf1b
:020019000d2eaa
:02001a001cd7f1
:02001b000121c1
:02001c000c2fa7
:02001d001028a9
:02001e001c556f
:02001f001028a7
:020020001c566c
:020021000120bc
:020022001c9e22
:02002300103497
:020024000000da
:020025000121b7
:020026001e00ba
:02002700103493
:020028000001d5
:020029000121b3
:02002a001c3b7d
:02002b0010348f
:02002c000002d0
:02002d000121af
:02002e002a693d
:02002f0010348b
:020030000003cb
:020031000121ab
:02003200001fad
:02003300103487
:020034000004c6
:020035000121a7
:020036000008c0
:02003700103483
:020038000005c1
:020039000121a3
:02003a000016ae
:02003b0010347f
:02003c000006bc
:02003d0001219f
:02003e000002be
:02003f0010347b
:020040000007b7
:0200410001219b
:02004200784004
:02004300103477
:020044000008b2
:02004500012197
:02004600017d3a
:02004700103473
:020048000009ad
:02004900001f96
:02004a00003f75
:02004b00012e84
:02004c001c573f
:02004d00022e81
:02004e000100af
:02004f0011247a
:02005000123567
:0200510002307b
:02005200003874
:02005300004f5c
:02005400003e6c
:02005500013e6a
:02005600023e68
:02005700033e66
:02005800043e64
:02005900053e62
:02005a00063e60
:02005b00073e5e
:02005c00083e5c
:02005d00093e5a
:02005e000a3e58
:02005f000e3e53
:02006000003f5f
:02006100813fdd
:02006200023f5b
:02006300033f59
:02006400043f57
:02006500053f55
:02006600063f53
:02006700073f51
:02006800083f4f
:02006900093f4d
:02006a00660e20
:02006b0060280b
:02006c001cb7bf
:02006d006e1a09
:02006e000e2161
:02006f0000147b
:02007000003b53
:02007100038dfd
:02007200003b51
:02007300050e78
:02007400003b4f
:0200750005453f
:02007600833fc6
:02007700b133a3
:02007800033f44
:02007900014143
:02007a00008004
:02007b0010373c
:02007c0000057d
:02007d00003b46
:02007e0004403c
:02007f00003b44
:02008000031368
:0200810008393c
:02008200008cf0
:02008300083e35
:0200840003393e
:02008500007603
:02008600012156
:02008700007601
:020088001f2b2c
:02008900032d45
:02008a001cd682
:02008b00033a36
:02008c00093930
:02008d000076fb
:02008e00093e29
:02008f000e3031
:020090000a392b
:020091000076f7
:020092000a3e24
:02009300003932
:020094000076f4
:02009500873ea4
:02009600012146
:02009700000166
:0200980000372f
:02009900000362
:02009a00073e1f
:02009b00110e44
:02009c0010282a
:02009d001c4afb
:02009e00003c24
:02009f00873e9a
:0200a0000c2e24
:0200a1000b183a
:0200a200003b21
:0200a300034612
:0200a400003b1f
:0200a5000386d0
:0200a600012037
:0200a7001c4af1
:0200a800110c39
:0200a90090378e
:0200aa00000252
:0200ab00073e0e
:0200ac00003c16
:0200ad00873e8c
:0200ae00012e21
:0200af001ccf64
:0200b000011f2e
:0200b100000548
:0200b200122416
:0200b300003b10
:0200b400042224
:0200b500013810
:0200b60000b296
:0200b7000c2e0d
:0200b8000c102a
:0200b900003b0a
:0200ba000346fb
:0200bb00012022
:0200bc001c4adc
:0200bd00110c24
:0200be00903779
:0200bf0000023d
:0200c000073ef9
:0200c100003c01
:0200c200823e7c
:0200c300003cff
:0200c400023efa
:0200c500003cfd
:0200c6000239fd
:0200c70000d463
:0200c8000c2efc
:0200c9000c2405
:0200ca00003bf9
:0200cb000346ea
:0200cc00003bf7
:0200cd0003949a
:0200ce000c2ef6
:0200cf000c2af9
:0200d000003bf3
:0200d1000346e4
:0200d200003bf1
:0200d300039494
:0200d400003cee
:0200d500003bee
:0200d60000c662
:0200d7000c2eed
:0200d8000deb2e
:0200d9000039ec
:0200da00014bd8
:0200db00003be8
:0200dc0000c65c
:0200dd000c2ee7
:0200de00124ec0
:0200df000039e6
:0200e000014bd2
:0200e100003be2
:0200e20000c656
:0200e3000c2ee1
:0200e400107a90
:0200e5000039e0
:0200e600014bcc
:0200e700873e52
:0200e800003bdb
:0200e90000c64f
:0200ea000c2eda
:0200eb000e9174
:0200ec000039d9
:0200ed00014bc5
:0200ee00003bd5
:0200ef0000c649
:0200f0000c2ed4
:0200f1001824d1
:0200f2000039d3
:0200f300014bbf
:0200f400003bcf
:0200f50000c643
:0200f6000c2ece
:0200f70014cb28
:0200f8000039cd
:0200f900014bb9
:0200fa00003bc9
:0200fb0000c63d
:0200fc00873e3d
:0200fd000120e0
:0200fe001c499b
:0200ff00181acd
:02010000011fdd
:02010100000fed
:02010200823346
:02010300003bbf
:020104000422d3
:02010500003bbd
:02010600038d67
:020107000830be
:020108000138bc
:020109000102f1
:02010a000120d2
:02010b001c4a8c
:02010c00110cd4
:02010d00903729
:02010e000002ed
:02010f00073ea9
:02011000003bb2
:02011100038d5c
:02011200003caf
:020113000120c9
:020114001cca03
:02011500010fd8
:020116000001e6
:0201170090371f
:020118000008dd
:02011900220eb4
:02011a0020289b
:02011b001ccbfb
:02011c000c2ea7
:02011d000b7263
:02011e000037a8
:02011f000007d7
:020120000221ba
:020121000003d9
:02012200202893
:020123001ccbf3
:020124000c2e9f
:020125000b8a43
:0201260010289f
:020127001ccaf0
:02012800003b9a
:0201290003468b
:02012a00003b98
:02012b00038d42
:02012c00003c95
:02012d000120af
:02012e001cc9ea
:02012f00010fbe
:020130000001cc
:02013100903705
:020132000005c6
:020133000c2e90
:020134000bb608
:02013500003791
:020136000003c4
:020137000c2e8c
:020138000ba218
:0201390010288c
:02013a001cc9de
:02013b00003b87
:02013c00034678
:02013d00003b85
:02013e00038d2f
:02013f00003c82
:020140000c2e83
:020141000bcae7
:02014200003b80
:02014300034671
:02014400003b7e
:0201450003ddd8
:0201460020286f
:020147001c4951
:02014800003b7a
:0201490003941d
:02014a00003c77
:02014b00003b77
:02014c00036d41
:02014d00003b75
:02014e00037f2d
:02014f00003c72
:0201500001208c
:020151001c424e
:0201520007396b
:02015300015554
:020154001a355a
:02015500102870
:020156001c4645
:02015700012184
:02015800303045
:0201590010286c
:02015a001c4047
:02015b0010286a
:02015c001c4144
:02015d00003c64
:02015e0001207e
:02015f001c4240
:0201600007395d
:02016100016338
:020162001a354c
:02016300022078
:020164001c403d
:02016500032075
:020166001c413a
:02016700011f76
:0201680000078e
:0201690002157d
:02016a0013156b
:02016b00013859
:02016c00016927
:02016d00302838
:02016e001c4132
:02016f00120c70
:02017000202845
:020171001c4030
:02017200003c4f
:02017300003b4f
:020174000197f1
:02017500003b4d
:02017600038df7
:02017700012d58
:020178001c4326
:02017900012063
:02017a001c4621
:02017b0011135e
:02017c00006d14
:02017d00103739
:02017e0000047b
:02017f00123339
:02018000003746
:0201810000106c
:02018200102f3c
:020183001c3c22
:02018400102f3a
:020185001c3d1f
:02018600042053
:020187001ccb8f
:02018800040b66
:02018900000371
:02018a009037ac
:02018b0000046e
:02018c0012223d
:02018d00003739
:02018e0000036c
:02018f00102638
:02019000122239
:02019100002646
:02019200003b30
:02019300042244
:02019400003b2e
:02019500038dd8
:02019600003c2b
:02019700012045
:020198001c4009
:02019900003b29
:02019a0003bda3
:02019b00231926
:02019c00012040
:02019d001c4103
:02019e00003b24
:02019f0003bd9e
:0201a000021744
:0201a100021743
:0201a200320c1d
:0201a300202812
:0201a4001c43fa
:0201a500012136
:0201a6003030f7
:0201a70010281e
:0201a8001c40f9
:0201a90010281c
:0201aa001c41f6
:0201ab00012031
:0201ac001c42f3
:0201ad00102818
:0201ae001c47ec
:0201af0007390e
:0201b00001b29a
:0201b1001a35fd
:0201b200003c0f
:0201b300003b0f
:0201b400015eea
:0201b500003c0c
:0201b600003b0c
:0201b70001cd78
:0201b800003b0a
:0201b90001dc67
:0201ba00003c07
:0201bb00003b07
:0201bc0001cd73
:0201bd0002201e
:0201be001c44df
:0201bf00220913
:0201c00003201a
:0201c1001c47d9
:0201c2003313f5
:0201c300002d0d
:0201c400903772
:0201c500000335
:0201c600020332
:0201c700000135
:0201c8002028ed
:0201c9001c44d4
:0201ca00003bf8
:0201cb0001dc55
:0201cc00003cf5
:0201cd0001200f
:0201ce001c40d3
:0201cf00003bf3
:0201d00003bd6d
:0201d1002319f0
:0201d20001200a
:0201d3001c41cd
:0201d400003bee
:0201d50003bd68
:0201d60002170e
:0201d70002170d
:0201d800320ce7
:0201d9002028dc
:0201da001c44c3
:0201db00003ce6
:0201dc00012000
:0201dd001c44c0
:0201de000220fd
:0201df001c43bf
:0201e0000320fa
:0201e1001c46ba
:0201e2000420f7
:0201e3001ccb33
:0201e4003313d3
:0201e5000077a1
:0201e600903750
:0201e700000511
:0201e800211ada
:0201e9001135ce
:0201ea000037dc
:0201eb0000749e
:0201ec003313cb
:0201ed0000739d
:0201ee00903748
:0201ef00000e00
:0201f000211ad2
:0201f100032edb
:0201f2000c14eb
:0201f3000120e9
:0201f4001c44a9
:0201f5003104d3
:0201f600131ada
:0201f7003122b3
:0201f8001233c0
:0201f900120ce6
:0201fa002135ad
:0201fb000037cb
:0201fc0000639e
:0201fd003313ba
:0201fe0000639c
:0201ff00903737
:02020000000fed
:02020100211ac0
:02020200032ec9
:020203000c14d9
:020204000120d7
:020205001c4497
:020206003104c1
:02020700131ac8
:020208003122a1
:020209001109d9
:02020a001233ad
:02020b00120ad5
:02020c0021359a
:02020d000037b8
:02020e0000519d
:02020f003313a7
:02021000007478
:02021100903724
:02021200000edc
:02021300211aae
:02021400032eb7
:020215000c14c7
:020216000120c5
:020217001c4485
:020218003104af
:02021900131ab6
:02021a0031228f
:02021b0012339c
:02021c00120ec0
:02021d00213589
:02021e000037a7
:02021f0000409d
:02022000331396
:02022100006972
:02022200903713
:020223000010c9
:02022400211a9d
:02022500032ea6
:020226000c14b6
:020227000120b4
:020228001c4474
:0202290031049e
:02022a00131aa5
:02022b0031227e
:02022c0012338b
:02022d00120eaf
:02022e00213578
:02022f00120ead
:02023000213576
:02023100003794
:02023200002d9d
:02023300331383
:02023400006167
:02023500903700
:020236000007bf
:02023700211a8a
:0202380013337e
:02023900310a88
:02023a0011357c
:02023b0000378a
:02023c0000239d
:02023d00331379
:02023e00006f4f
:02023f009037f6
:020240000007b5
:02024100211a80
:02024200133374
:02024300310c7c
:02024400113572
:02024500003780
:0202460000199d
:0202470033136f
:0202480000654f
:020249009037ec
:02024a000007ab
:02024b00211a76
:02024c0013336a
:02024d00310e70
:02024e00113568
:02024f00003776
:02025000000f9d
:02025100331365
:02025200006d3d
:020253009037e2
:02025400000b9d
:02025500012d79
:020256001c4347
:02025700032082
:020258001ccbbd
:02025900030b95
:02025a0000039f
:02025b0010375a
:02025c0000029e
:02025d00202659
:02025e00112964
:02025f00002677
:02026000003b61
:02026100038d0b
:02026200003b5f
:02026300038d09
:02026400003c5c
:02026500000097
:02026600003b5b
:02026700038d05
:02026800003c58
:02026900853ed0
:02026a00012d64
:02026b001c3c39
:02026c00102f51
:02026d001c3d36
:02026e00003955
:02026f00027219
:02027000012d5e
:020271001c3d32
:02027200121b5d
:02027300003b4e
:02027400042262
:02027500003b4c
:02027600038df6
:0202770000265f
:02027800021f63
:02027900000f74
:02027a00012061
:02027b001cc99c
:02027c00110c63
:02027d009037b8
:02027e00001b63
:02027f00011f5d
:02028000000775
:0202810001205a
:020282001ccb93
:02028300010b6d
:02028400000375
:02028500103730
:02028600000274
:0202870010263f
:0202880012243e
:0202890000264d
:02028a00003b37
:02028b0004224b
:02028c00013837
:02028d000281ec
:02028e00003b33
:02028f00038ddd
:02029000023832
:02029100027fea
:0202920005392c
:0202930002baad
:02029400102f29
:020295001c3c0f
:02029600053e23
:0202970000392c
:0202980002baa8
:02029900011f43
:02029a0000075b
:02029b00012040
:02029c001ccb79
:02029d00010b53
:02029e0000035b
:02029f00103716
:0202a00000025a
:0202a100102625
:0202a200330e19
:0202a300122423
:0202a400230c29
:0202a500122421
:0202a60002173d
:0202a70002173c
:0202a800230c25
:0202a900321d04
:0202aa0000262c
:0202ab00003b16
:0202ac0004222a
:0202ad00013816
:0202ae00029bb1
:0202af00003b12
:0202b000038dbc
:0202b100023811
:0202b2000299af
:0202b30005390b
:0202b40002ba8c
:0202b500102f08
:0202b6001c3cee
:0202b700053e02
:0202b80000390b
:0202b90002ba87
:0202ba00003b07
:0202bb00038db1
:0202bc00003c04
:0202bd00012e10
:0202be001c978b
:0202bf00121b10
:0202c000003b01
:0202c100042215
:0202c200003bff
:0202c300038da9
:0202c400002612
:0202c500021f16
:0202c600001026
:0202c700011f15
:0202c80000072d
:0202c9001224fd
:0202ca00003bf7
:0202cb0004220b
:0202cc000138f7
:0202cd0002c964
:0202ce00003bf3
:0202cf00038d9d
:0202d0000238f2
:0202d10002c762
:0202d200102feb
:0202d3001c3cd1
:0202d400003bed
:0202d500038d97
:0202d600003cea
:0202d7000c2eeb
:0202d8000bca4f
:0202d900003be8
:0202da000346d9
:0202db00003be6
:0202dc0003dd40
:0202dd003028c7
:0202de001cc240
:0202df002028d5
:0202e0001cc33d
:0202e100003be0
:0202e200038d8a
:0202e300003cdd
:0202e4000c2ede
:0202e5000bca42
:0202e600003bdb
:0202e7000346cc
:0202e800003bd9
:0202e90003dd33
:0202ea003028ba
:0202eb001cbf36
:0202ec002028c8
:0202ed001cc132
:0202ee00311ac3
:0202ef000520e8
:0202f0001cc32d
:0202f1000420e7
:0202f2001cc22c
:0202f3000620e3
:0202f4001ccb21
:0202f500060bf6
:0202f600000303
:0202f7001037be
:0202f8000007fd
:0202f9000120e2
:0202fa001cc91d
:0202fb002026bb
:0202fc00110ce3
:0202fd00903738
:0202fe000008f6
:0202ff00212bb1
:020300005201a8
:020301000411e5
:02030200903732
:02030300fffcfd
:020304000037c0
:02030500000aec
:02030600212ba9
:020307002319b8
:020308000318d8
:020309000318d7
:02030a00312b95
:02030b0052019d
:02030c000411da
:02030d00903727
:02030e00fff8f6
:02030f000026c6
:02031000003bb0
:02031100038d5a
:02031200003cad
:020313002f2b8e
:020314003f2b7d
:02031500012db8
:020316001c5574
:020317001222b0
:02031800220cb5
:0203190010379b
:02031a00000ad7
:02031b002112ad
:02031c00103798
:02031d000007d7
:02031e00131baf
:02031f000303d6
:020320000004d7
:02032100311a8f
:020322000037a2
:02032300fff4e5
:020324001223a2
:020325000001d5
:020326002213a0
:02032700005282
:0203280010378c
:020329000013bf
:02032a0022139c
:02032b00004a86
:02032c00103788
:02032d000009c5
:02032e00221398
:02032f00005379
:02033000903704
:02033100000fbb
:020332000220a7
:020333001c5557
:0203340020287f
:020335001c5654
:02033600122390
:020337000003c1
:0203380020287b
:020339001c5551
:02033a0000378a
:02033b000005bb
:02033c0002209d
:02033d001c564c
:02033e00202875
:02033f001c554b
:02034000122386
:020341000002b8
:02034200211a7e
:02034300f325a0
:02034400f225a0
:02034500013a7b
:02034600073975
:02034700036c45
:02034800b333cd
:02034900030ba4
:02034a00002091
:02034b00103769
:02034c00fffcb4
:02034d00c424c6
:02034e00441356
:02034f000000ac
:02035000103764
:02035100001b8f
:02035200441352
:02035300007c2c
:020354009037e0
:02035500000f97
:02035600001f86
:0203570000059f
:02035800b333bd
:02035900030b94
:02035a00004061
:02035b009037d9
:02035c00fffca4
:02035d00042179
:02035e00002d70
:02035f004a351d
:02036000003863
:0203610003583f
:02036200003762
:02036300ffe5b4
:020364004a3518
:02036500b333b0
:02036600030b87
:02036700004054
:020368009037cc
:02036900ffdfb4
:02036a0000375a
:02036b00ffe2af
:02036c00003c53
:02036d0007394e
:02036e00036c1e
:02036f00003b51
:02037000034642
:02037100c11bae
:02037200102851
:020373001c4824
:02037400003b4c
:02037500038df6
:02037600012064
:020377001c4820
:020378001c1a4d
:02037900c3229d
:02037a0033133b
:02037b0000037d
:02037c009037b8
:02037d00fff28d
:02037e00003c41
:02037f0007393c
:02038000036c0c
:020381000c2e40
:020382000c125b
:02038300003b3d
:0203840003462e
:02038500003c3a
:02038600073935
:02038700036c05
:020388000c2e39
:020389000c1056
:02038a00003b36
:02038b00034627
:02038c00003c33
:02038d0007392e
:02038e00036cfe
:02038f000c2e32
:020390000c0f50
:02039100003b2f
:02039200034620
:02039300003c2c
:02039400073927
:02039500036cf7
:020396000c2e2b
:020397000c0d4b
:02039800003b28
:02039900034619
:02039a00003c25
:02039b00b1337c
:02039c00010b53
:02039d0000401e
:02039e00903796
:02039f00fffc61
:0203a000003c1f
:0203a1002f2b00
:0203a200020b4c
:0203a300000f49
:0203a400221322
:0203a500000a4c
:0203a600d0374e
:0203a700000351
:0203a80002034e
:0203a90000074b
:0203aa0002034c
:0203ab00003020
:0203ac00202807
:0203ad001c3ef4
:0203ae00f22536
:0203af00021832
:0203b000020b3e
:0203b100000f3b
:0203b200221314
:0203b300000a3e
:0203b400d03740
:0203b500000343
:0203b600020340
:0203b70000073d
:0203b80002033e
:0203b900003012
:0203ba002028f9
:0203bb001c3fe5
:0203bc00003c03
:0203bd00121913
:0203be00010b31
:0203bf0000ff3d
:0203c000010733
:0203c10000300a
:0203c200111315
:0203c30000092f
:0203c400f03710
:0203c500000531
:0203c600010b29
:0203c700000f25
:0203c80001032f
:0203c900000929
:0203ca00021817
:0203cb00021816
:0203cc00020b22
:0203cd0000ff2f
:0203ce00020724
:0203cf000030fc
:0203d0002213f6
:0203d100000921
:0203d200f03702
:0203d300000523
:0203d400020b1a
:0203d500000f17
:0203d600020320
:0203d70000091b
:0203d80002170a
:0203d900020b15
:0203da0000f031
:0203db00120c02
:0203dc00003ce3
:0203dd00220eee
:0203de00330edc
:0203df00063ed8
:0203e000003be0
:0203e1000440d6
:0203e2000739d9
:0203e30003e530
:0203e4001a35c8
:0203e5001113f2
:0203e600000d08
:0203e7001037cd
:0203e8000021f2
:0203e9001113ee
:0203ea00000a07
:0203eb001037c9
:0203ec00001df2
:0203ed001113ea
:0203ee00002de0
:0203ef00903745
:0203f000000209
:0203f100863e46
:0203f200010701
:0203f3000030d8
:0203f4003037a0
:0203f500ffeb1c
:0203f6000215ee
:0203f7001315dc
:0203f8000215ec
:0203f9001315da
:0203fa000215ea
:0203fb001315d8
:0203fc000215e8
:0203fd001315d6
:0203fe001113d9
:0203ff000009f3
:02040000f037d3
:020401000005f4
:02040200010bec
:02040300000fe8
:020404000103f2
:020405000009ec
:02040600120cd6
:020407000037bc
:02040800ffd81b
:020409000639b2
:02040a00040fdd
:02040b002209c4
:02040c003309b2
:02040d000203e8
:02040e000001eb
:02040f00003caf
:020410000203e5
:020411000030b9
:020412002a3589
:020413000221c4
:02041400000dd9
:020415002a3586
:02041600003ca8
:020417002319a7
:02041800030bd4
:02041900800061
:02041a00103799
:02041b000007d8
:02041c002209b3
:02041d000203d8
:02041e000001db
:02041f000321b7
:02042000002dad
:020421003a356a
:0204220023199c
:020423000218bd
:020424000218bc
:02042500003b9a
:0204260003a130
:020427000120b2
:020428001c3f77
:020429001a3582
:02042a00003b95
:02042b00039b31
:02042c000120ad
:02042d001c3e73
:02042e001a357d
:02042f00321980
:02043000003b8f
:0204310003a125
:020432000120a7
:020433001c3f6c
:020434001a3577
:02043500003b8a
:02043600039b26
:020437000120a2
:020438001c3e68
:020439001a3572
:02043a00003b85
:02043b00039b21
:02043c0001219c
:02043d0000209d
:02043e001a356d
:02043f00003c7f
:02044000b133d6
:02044100014177
:02044200008038
:02044300103770
:02044400fffcbb
:02044500a133e1
:02044600010ba8
:0204470000ffb4
:0204480010287a
:020449001c4253
:02044a00003c74
:02044b000c2e75
:02044c000bcad9
:02044d00003b72
:02044e00034663
:02044f00003b70
:0204500003ddca
:02045100202861
:020452001ccfbd
:02045300003b6c
:02045400038d16
:02045500003c69
:020456000c2e6a
:020457000bcace
:02045800003b67
:02045900034658
:02045a00003b65
:02045b0003ddbf
:02045c00202856
:02045d001cd0b1
:02045e00003b61
:02045f00038d0b
:02046000003c5e
:020461000c2e5f
:020462000bcac3
:02046300003b5c
:0204640003464d
:02046500003b5a
:0204660003ddb4
:0204670020284b
:020468001cd1a5
:02046900003b56
:02046a00038d00
:02046b00003c53
:02046c000c2e54
:02046d000bcab8
:02046e00003b51
:02046f00034642
:02047000003b4f
:0204710003dda9
:02047200202840
:020473001cd299
:02047400220e56
:0204750020283d
:020476001cd395
:0204770020283b
:020478001cd492
:02047900003b46
:02047a00038df0
:02047b00003c43
:02047c000c2e44
:02047d000bcaa8
:02047e00003b41
:02047f00034632
:02048000003b3f
:0204810003dd99
:02048200202830
:020483001cd388
:02048400220e46
:0204850020282d
:020486001cd484
:02048700003b38
:02048800038de2
:02048900003c35
:02048a000c2e36
:02048b000bca9a
:02048c00003b33
:02048d00034624
:02048e00003b31
:02048f0003dd8b
:02049000202822
:020491001cd479
:02049200003b2d
:02049300038dd7
:02049400003c2a
:020495000c2e2b
:020496000bca8f
:02049700003b28
:02049800034619
:02049900003b26
:02049a0003dd80
:02049b00020b52
:02049c0000035b
:02049d00021744
:02049e00021743
:02049f00021742
:0204a000013227
:0204a100000752
:0204a200010b4c
:0204a300cfff89
:0204a400210c29
:0204a500103411
:0204a60000074d
:0204a700003b18
:0204a800038dc2
:0204a900003c15
:0204aa000c2e16
:0204ab000bca7a
:0204ac00003b13
:0204ad00034604
:0204ae00003b11
:0204af0003dd6b
:0204b000020b3d
:0204b100000346
:0204b20002172f
:0204b30002172e
:0204b40002172d
:0204b50002152e
:0204b60002152d
:0204b700013210
:0204b80000073b
:0204b900010b35
:0204ba003fff02
:0204bb00210c12
:0204bc001034fa
:0204bd00000736
:0204be00003b01
:0204bf00038dab
:0204c000003cfe
:0204c1000c2eff
:0204c2000bca63
:0204c300003bfc
:0204c4000346ed
:0204c500003bfa
:0204c60003dd54
:0204c7002034df
:0204c800000131
:0204c900003bf6
:0204ca00038da0
:0204cb00003cf3
:0204cc000c2ef4
:0204cd000bca58
:0204ce00003bf1
:0204cf000346e2
:0204d000003bef
:0204d10003dd49
:0204d2002034d4
:0204d300000423
:0204d400003beb
:0204d500038d95
:0204d600003ce8
:0204d7000c2ee9
:0204d8000bca4d
:0204d900003be6
:0204da000346d7
:0204db00003be4
:0204dc0003dd3e
:0204dd002034c9
:0204de00000517
:0204df00003be0
:0204e000038d8a
:0204e100003cdd
:0204e2000c2ede
:0204e3000bca42
:0204e400003bdb
:0204e5000346cc
:0204e600003bd9
:0204e70003dd33
:0204e8002034be
:0204e90000060b
:0204ea00003bd5
:0204eb00038d7f
:0204ec00003cd2
:0204ed00013fcd
:0204ee000121ea
:0204ef00001fec
:0204f0001034c6
:0204f100000405
:0204f2000121e6
:0204f3000008ff
:0204f4001034c2
:0204f500000500
:0204f6000121e2
:0204f7000016ed
:0204f8001034be
:0204f9000006fb
:0204fa00813f40
:0204fb00003cc3
:0204fc00013fbe
:0204fd000121db
:0204fe00001fdd
:0204ff000115e5
:020500001034b5
:020501000004f4
:020502000121d5
:020503000008ee
:020504000115df
:020505001034b0
:020506000005ee
:020507000121d0
:020508000016db
:020509000115da
:02050a001034ab
:02050b000006e8
:02050c00813f2d
:02050d00003cb0
:02050e000132b8
:02050f000007e3
:02051000010bdd
:02051100fffeeb
:02051200010dd9
:020513000001e5
:020514001034a1
:020515000007dd
:02051600001fc4
:02051700000ad8
:020518000000e1
:020519000000e0
:02051a000038a7
:02051b000518c1
:02051c000000dd
:02051d00010bd0
:02051e00fffede
:02051f00103496
:020520000007d2
:020521000c2e9e
:020522000be0ec
:02052300003b9b
:0205240003468c
:02052500003b99
:0205260003943c
:02052700003c96
:020528000c2e97
:020529000bcafb
:02052a00003b94
:02052b00034685
:02052c00003b92
:02052d0003ddec
:02052e00020bbe
:02052f000002c8
:02053000013296
:020531000007c1
:02053200010bbb
:02053300fffdca
:02053400210c98
:02053500103480
:020536000007bc
:02053700003b87
:02053800038d31
:02053900003c84
:02053a000c2e85
:02053b000bcae9
:02053c00003b82
:02053d00034673
:02053e00003b80
:02053f0003ddda
:02054000202871
:020541001c524a
:02054200220c89
:0205430010376f
:020544000004b1
:0205450000456f
:02054600843ff0
:02054700003c76
:0205480000466b
:02054900043f6d
:02054a00003c73
:02054b00023f6d
:02054c00003b72
:02054d0006396d
:02054e00013f6b
:02054f000c2e70
:020550000bcad4
:02055100003b6d
:0205520003465e
:02055300003b6b
:0205540003ddc5
:02055500203450
:020556000000a3
:0205570020285a
:020558001c9ee7
:02055900003b65
:02055a00038d0f
:02055b00813fde
:02055c00003c61
:02055d000c2e62
:02055e000bcac6
:02055f00003b5f
:02056000034650
:02056100003b5d
:0205620003ddb7
:0205630020284e
:020564001cc5b4
:02056500003c58
:020566000c2e59
:020567000bcabd
:02056800003b56
:02056900034647
:02056a00003b54
:02056b0003ddae
:02056c00020b80
:02056d00000389
:02056e00202843
:02056f001cd599
:02057000000e7b
:02057100002860
:020572001c4d1e
:02057300003c4a
:02057400023f44
:02057500043e42
:02057600110e64
:02057700003949
:02057800057dff
:02057900823fbf
:02057a00843ebd
:02057b0001215c
:02057c0000017c
:02057d00172a3b
:02057e0000017a
:02057f00003c3e
:020580000c2e3f
:020581000bcaa3
:02058200003b3c
:0205830003462d
:02058400003b3a
:0205850003dd94
:0205860020282b
:020587001c4b0b
:02058800202829
:020589001c4c08
:02058a000e3e23
:02058b002e1927
:02058c000e2e31
:02058d0000006c
:02058e00003c2f
:02058f000c2e30
:020590000bca94
:02059100003b2d
:0205920003461e
:02059300003b2b
:0205940003dd85
:02059500020b57
:02059600000f54
:0205970020281a
:020598001cc67f
:02059900003c24
:02059a00251921
:02059b00660eea
:02059c00770ed8
:02059d00050b4c
:02059e0000ff5c
:02059f00103713
:0205a000000356
:0205a100062131
:0205a20000ff58
:0205a300020b49
:0205a400ff0056
:0205a50010370d
:0205a600000350
:0205a700060d3f
:0205a800ff0052
:0205a900030b42
:0205aa0000ff50
:0205ab00103707
:0205ac0000034a
:0205ad00072124
:0205ae0000ff4c
:0205af006028c2
:0205b0001cc766
:0205b1007028b0
:0205b2001cc863
:0205b300003c0a
:0205b4000c2e0b
:0205b5000bca6f
:0205b600003b08
:0205b7000346f9
:0205b800003b06
:0205b90003dd60
:0205ba002f2be5
:0205bb003f2bd4
:0205bc0000003d
:0205bd00003b01
:0205be00059a9c
:0205bf00f32522
:0205c000f22522
:0205c10084397b
:0205c20005c76b
:0205c300012e07
:0205c4001c57c2
:0205c5000037fd
:0205c600000330
:0205c700012e03
:0205c8001c779e
:0205c90001200f
:0205ca001cbb58
:0205cb00011518
:0205cc00110418
:0205cd00111a01
:0205ce00212bdf
:0205cf003129d0
:0205d0002028e1
:0205d1001cbd4f
:0205d2003028cf
:0205d3001cbe4c
:0205d400003bea
:0205d50005d748
:0205d600003ce7
:0205d700001f03
:0205d800003fe2
:0205d900012ef1
:0205da001c57ac
:0205db00022eee
:0205dc0001001c
:0205dd001124e7
:0205de001235d4
:0205df000230e8
:0205e0000038e1
:0205e10005dd36
:0205e200003cdb
:0205e3000c2edc
:0205e4000bca40
:0205e500003bd9
:0205e6000346ca
:0205e700003bd7
:0205e80003dd31
:0205e900020b03
:0205ea00000f00
:0205eb002028c6
:0205ec001cbb36
:0205ed00003cd0
:0205ee000c2ed1
:0205ef000bca35
:0205f000003bce
:0205f1000346bf
:0205f200003bcc
:0205f30003dd26
:0205f400020bf8
:0205f5000007fd
:0205f600012ed4
:0205f7001c33b3
:0205f8001204eb
:0205f900211ac5
:0205fa001222cb
:0205fb002028b6
:0205fc001cbc25
:0205fd00003cc0
:0205fe00023fba
:0205ff000c2ec0
:020600000bca23
:02060100003bbc
:020602000346ad
:02060300003bba
:0206040003dd14
:02060500020be6
:02060600000fe3
:020607002028a9
:020608001ccc08
:02060900032ebe
:02060a001c13bf
:02060b00234486
:02060c00302f8d
:02060d001cce01
:02060e00033aad
:02060f00023fa8
:02061000220eb8
:0206110020289f
:020612001c4d7d
:0206130020289d
:020614001c4e7a
:0206150020289b
:020616001cd5f1
:02061700013ea2
:020618000039a7
:020619000630a9
:02061a00023f9d
:02061b000c2ea3
:02061c000bca07
:02061d00003ba0
:02061e00034691
:02061f00003b9e
:0206200003ddf8
:0206210020288f
:020622001cccee
:02062300020bc8
:02062400000fc5
:0206250090370c
:020626000007cb
:020627000121af
:020628000001cf
:02062900102897
:02062a001c4e64
:02062b00003796
:02062c000004c8
:02062d00110eac
:02062e00102892
:02062f001c4e5f
:02063000032e97
:020631001c2388
:0206320023445f
:02063300302f66
:020634001cd6d2
:020635000e2e87
:020636000000c2
:02063700833e00
:02063800003c84
:02063900220e8f
:02063a00330e7d
:02063b00440e6b
:02063c00550e59
:02063d00402853
:02063e001cc7d7
:02063f00502841
:020640001cc8d4
:0206410000397e
:02064200069b15
:02064300022093
:020644001cbcdc
:02064500020ba6
:0206460000ffb3
:0206470003218d
:020648000000b0
:0206490004218a
:02064a0000ffaf
:02064b00052187
:02064c000000ac
:02064d00003972
:02064e00069b09
:02064f00022186
:020650000000a8
:02065100032084
:020652001cbcce
:02065300030b97
:0206540000ffa5
:0206550004217e
:020656000000a2
:0206570005217b
:0206580000ffa1
:02065900003966
:02065a00069bfd
:02065b0002207b
:02065c001cbcc4
:02065d00020b8e
:02065e0000ff9b
:02065f00032076
:020660001cbcc0
:02066100030b89
:0206620000ff97
:02066300042170
:0206640000ff95
:0206650005216d
:0206660000ff93
:02066700003958
:02066800069bef
:0206690002206d
:02066a001cbcb6
:02066b00020b80
:02066c00ff008d
:02066d00032167
:02066e0000008a
:02066f00042164
:02067000ff0089
:02067100052161
:02067200000086
:0206730000394c
:02067400069be3
:02067500022061
:020676001cbcaa
:02067700020b74
:02067800ffff82
:0206790003215b
:02067a0000007e
:02067b00042158
:02067c00ffff7e
:02067d00052155
:02067e0000007a
:02067f00003940
:02068000069bd7
:02068100022055
:020682001cbc9e
:02068300020b68
:02068400ff0075
:02068500032050
:020686001cbc9a
:02068700030b63
:0206880000ff71
:0206890004214a
:02068a00ff006f
:02068b00052147
:02068c0000ff6d
:02068d00003932
:02068e00069bc9
:02068f00022047
:020690001cbc90
:02069100020b5a
:02069200ffff68
:02069300032042
:020694001cbc8c
:02069500030b55
:0206960000ff63
:0206970004213c
:02069800ffff62
:02069900052139
:02069a0000ff5f
:02069b00202815
:02069c001cbd83
:02069d00302803
:02069e001cbe80
:02069f004028f1
:0206a0001cc775
:0206a1005028df
:0206a2001cc872
:0206a300843998
:0206a40006aba3
:0206a500012e24
:0206a6001c57df
:0206a700022e21
:0206a80001004f
:0206a900003718
:0206aa00000549
:0206ab00012e1e
:0206ac001c77b9
:0206ad00022e1b
:0206ae00012029
:0206af00001f2a
:0206b000000f39
:0206b100212bfb
:0206b200312bea
:0206b3002235ee
:0206b400023012
:0206b5003235dc
:0206b600023010
:0206b700003809
:0206b80006b189
:0206b900033efe
:0206ba00003c02
:0206bb00033efc
:0206bc0002201a
:0206bd001cbd62
:0206be00032017
:0206bf001cbe5f
:0206c000032e07
:0206c1001cdf3c
:0206c200052011
:0206c3001cb762
:0206c4005619c5
:0206c500051519
:0206c6003504f9
:0206c700531ac4
:0206c800232be2
:0206c900332bd1
:0206ca00061018
:0206cb006613b4
:0206cc000032fa
:0206cd005037a4
:0206ce00000327
:0206cf006028a1
:0206d0001cb755
:0206d100003ceb
:0206d200033ee5
:0206d300043ee3
:0206d400023fe3
:0206d500110e04
:0206d6001028ea
:0206d7001cba4b
:0206d8001028e8
:0206d9001cb74c
:0206da001028e6
:0206db001cb849
:0206dc001028e4
:0206dd001cb946
:0206de001028e2
:0206df001c4db0
:0206e0001028e0
:0206e1001c4ead
:0206e200003bdb
:0206e30005d739
:0206e400001ff5
:0206e50000070c
:0206e600012ee3
:0206e7001caf46
:0206e800112bd4
:0206e9000038d7
:0206ea0006e820
:0206eb00003cd1
:0206ec000c2ed2
:0206ed000bca36
:0206ee00003bcf
:0206ef000346c0
:0206f000003bcd
:0206f10003dd27
:0206f200020bf9
:0206f300000302
:0206f4002028bc
:0206f5001ccd1a
:0206f600003cc6
:0206f7000c2ec7
:0206f8000bca2b
:0206f900003bc4
:0206fa000346b5
:0206fb00003bc2
:0206fc0003dd1c
:0206fd00020bee
:0206fe000007f3
:0206ff00272aa8
:020700000000f7
:02070100204294
:02070200003bba
:02070300038d64
:02070400003cb7
:020705000c2eb8
:020706000bca1c
:02070700003bb5
:020708000346a6
:02070900003bb3
:02070a0003dd0d
:02070b00020bdf
:02070c0080ff6c
:02070d002028a2
:02070e001cc409
:02070f00003bad
:02071000038d57
:02071100003caa
:020712000420c1
:020713001cb711
:02071400440c93
:0207150090371b
:020716000004dd
:02071700110ec1
:020718000037a8
:020719000009d5
:02071a000121bb
:02071b000001db
:02071c000520b6
:02071d001c9e20
:02071e00003b9e
:02071f000a6e60
:0207200030287f
:020721001cb901
:0207220060284d
:020723001cb800
:0207240010289b
:020725001cbafc
:02072600003c95
:02072700012ea1
:020728001c9f14
:020729000120ad
:02072a001cbbf6
:02072b001104b7
:02072c00111aa0
:02072d00112297
:02072e00172a88
:02072f000002c6
:0207300010288f
:020731001cbfeb
:020732000420a1
:020733001c9e0a
:0207340044156a
:0207350040285a
:020736001cc2e3
:020737000415a7
:02073800220e8f
:02073900052099
:02073a001cc4dd
:02073b00531950
:02073c00050bab
:02073d0080003a
:02073e009037f2
:02073f000003b5
:02074000003780
:020741000003b3
:02074200032092
:020743001cbbdd
:02074400330c74
:0207450010376b
:020746000005ac
:0207470042016d
:0207480003119b
:020749009037e7
:02074a00fffdb1
:02074b00202864
:02074c001cc0cf
:02074d00272a59
:02074e000003a6
:02074f00003c6c
:02075000003b6c
:02075100072778
:02075200012d77
:020753001cbfc9
:02075400022d74
:020755001cc0c6
:0207560004207d
:020757001cc2c2
:02075800202659
:02075900001f7f
:02075a0000019c
:02075b00122466
:02075c00222b4e
:02075d00021880
:02075e0002187f
:02075f00003860
:02076000075c34
:02076100041181
:020762009037ce
:02076300fff69f
:0207640000266d
:02076500111b66
:02076600172a50
:0207670000048c
:02076800211b53
:02076900172a4d
:02076a00000588
:02076b00003b51
:02076c00038dfb
:02076d00003c4e
:02076e00003b4e
:02076f0007275a
:02077000012d59
:020771001cbfab
:02077200022d56
:020773001cc0a8
:0207740004205f
:020775001cc2a4
:0207760010264b
:02077700330e3f
:02077800222439
:02077900230c4f
:02077a00222437
:02077b00021763
:02077c00021762
:02077d00230c4b
:02077e00312b1d
:02077f00041163
:020780009037b0
:02078100fff681
:0207820000264f
:02078300111b48
:02078400172a32
:0207850000046e
:02078600211b35
:02078700172a2f
:0207880000056a
:02078900003b33
:02078a00038ddd
:02078b00003c30
:02078c00033e2a
:02078d00003b2f
:02078e00071250
:02078f00012047
:020790001cba91
:02079100110c49
:0207920010371e
:02079300004024
:02079400012e34
:020795001c9fa7
:02079600012040
:020797001cbb89
:0207980011440a
:02079900151b2e
:02079a00022e2d
:02079b001cdf61
:02079c00042037
:02079d001c9ea0
:02079e004719f9
:02079f00062032
:0207a0001cb883
:0207a10008202e
:0207a2001cb782
:0207a30009202b
:0207a4001cbc7b
:0207a500012031
:0207a6001ccd68
:0207a700110c33
:0207a800903788
:0207a900001638
:0207aa00222407
:0207ab00920ab0
:0207ac00232404
:0207ad00930aad
:0207ae00212bfd
:0207af00312bec
:0207b000041132
:0207b10090377f
:0207b200fffc4a
:0207b300511ad9
:0207b4002224fd
:0207b500920aa6
:0207b6002324fa
:0207b700930aa3
:0207b8006705d3
:0207b900081125
:0207ba001037f6
:0207bb00001824
:0207bc007419ae
:0207bd00003703
:0207be00fff04a
:0207bf00071120
:0207c000770cb4
:0207c1003037cf
:0207c200001124
:0207c3002224ee
:0207c400920a97
:0207c5002324eb
:0207c600930a94
:0207c700212be4
:0207c800312bd3
:0207c900081115
:0207ca00903766
:0207cb00fff439
:0207cc00082003
:0207cd001cb757
:0207ce00022ef9
:0207cf001cdf2d
:0207d000061110
:0207d1000037ef
:0207d200ffed39
:0207d300003ce8
:0207d400033ee2
:0207d500012ef3
:0207d6001c9f66
:0207d7000120ff
:0207d8001cbb48
:0207d9001144c9
:0207da000420f9
:0207db001c9e62
:0207dc000920f2
:0207dd001cbc42
:0207de000221f6
:0207df0000ff19
:0207e000920a7b
:0207e1000321f2
:0207e200000015
:0207e3002719d4
:0207e4003819c2
:0207e500212bc6
:0207e600312bb5
:0207e700001ff1
:0207e800000708
:0207e9000215f7
:0207ea001315e5
:0207eb000038d4
:0207ec0007e91b
:0207ed00030bfc
:0207ee0000ff0a
:0207ef002519ca
:0207f0003619b8
:0207f100650c95
:0207f20090373e
:0207f300000301
:0207f400721978
:0207f500831966
:0207f6000411ec
:0207f700903739
:0207f800ffed13
:0207f9000039c5
:0207fa00038d6d
:0207fb00033ebb
:0207fc00012ecc
:0207fd001c9f3f
:0207fe000120d8
:0207ff001cbb21
:020800001144a1
:02080100220ec5
:020802002319b8
:020803000420cf
:020804001c9e38
:02080500220cc3
:02080600903729
:020807000008e7
:02080800030be0
:0208090000ffee
:02080a00903725
:02080b000004e7
:02080c000221c7
:02080d000001e8
:02080e00330ea7
:02080f00212b9b
:02081000312b8a
:020811000215ce
:020812001315bc
:020813000411ce
:0208140090371b
:02081500fff0f2
:020816000039a7
:02081700038d4f
:02081800003ba3
:0208190006d205
:02081a00003ba1
:02081b00064392
:02081c00003b9f
:02081d0006bb18
:02081e00003b9d
:02081f00068f42
:02082000003b9b
:0208210006bb14
:02082200003b99
:02082300066964
:02082400003b97
:0208250006bb10
:02082600003997
:02082700078c3c
:02082800003b93
:0208290006d2f5
:02082a00012e9d
:02082b001cdfd0
:02082c000221a7
:02082d0000ffca
:02082e000321a4
:02082f00003097
:02083000212b7a
:02083100312b69
:020832000221a1
:02083300ffffc5
:0208340003219e
:0208350000ffc2
:02083600212b74
:02083700312b63
:0208380002219b
:020839000000bd
:02083a00032198
:02083b0000ffbc
:02083c00212b6e
:02083d00312b5d
:02083e00012196
:02083f000003b4
:0208400010287e
:020841001cb7e2
:0208420000397b
:02084300078c20
:02084400003b77
:0208450006d2d9
:02084600003b75
:02084700066940
:02084800003b73
:0208490006bbec
:02084a00003b71
:02084b00068f16
:02084c00003b6f
:02084d0006bbe8
:02084e00003b6d
:02084f00066938
:02085000003b6b
:0208510006bbe4
:0208520000396b
:02085300078c10
:02085400003b67
:0208550006d2c9
:02085600003b65
:02085700064356
:02085800003b63
:0208590006bbdc
:02085a00003b61
:02085b00068f06
:02085c00003b5f
:02085d0006bbd8
:02085e00003b5d
:02085f0006434e
:02086000003b5b
:0208610006bbd4
:0208620000395b
:02086300078c00
:02086400003b57
:0208650006d2b9
:02086600003b55
:02086700064f3a
:02086800003b53
:0208690006bbcc
:02086a00003b51
:02086b00068ff6
:02086c00003b4f
:02086d0006bbc8
:02086e00003b4d
:02086f0006433e
:02087000003b4b
:0208710006bbc4
:0208720000394b
:02087300078cf0
:02087400003b47
:0208750006d2a9
:02087600012e51
:020877001cdf84
:0208780002215b
:0208790000ff7e
:02087a00032158
:02087b00002259
:02087c00212b2e
:02087d00312b1d
:02087e00012156
:02087f00000176
:0208800010283e
:020881001cb7a2
:0208820000393b
:02088300078ce0
:02088400003b37
:0208850006d299
:02088600003b35
:02088700064326
:02088800003b33
:0208890006bbac
:02088a00003b31
:02088b00064f16
:02088c00003b2f
:02088d0006bba8
:02088e00003b2d
:02088f000669f8
:02089000003b2b
:0208910006bba4
:02089200003b29
:02089300065b02
:02089400003b27
:0208950006bba0
:02089600003b25
:020897000675e4
:02089800003b23
:0208990006bb9c
:02089a00003b21
:02089b000681d4
:02089c00003b1f
:02089d0006bb98
:02089e00003b1d
:02089f00068fc2
:0208a000003b1b
:0208a10006bb94
:0208a20000391b
:0208a300078cc0
:0208a400003b17
:0208a50006d279
:0208a600003b15
:0208a700064306
:0208a800003b13
:0208a90006bb8c
:0208aa00003b11
:0208ab00064ff6
:0208ac00003b0f
:0208ad0006bb88
:0208ae00003b0d
:0208af00065be6
:0208b000003b0b
:0208b10006bb84
:0208b200003b09
:0208b3000669d4
:0208b400003b07
:0208b50006bb80
:0208b600003b05
:0208b7000675c4
:0208b800003b03
:0208b90006bb7c
:0208ba00003b01
:0208bb000681b4
:0208bc00003bff
:0208bd0006bb78
:0208be00003bfd
:0208bf00068fa2
:0208c000003bfb
:0208c10006bb74
:0208c2000039fb
:0208c300078ca0
:0208c400003bf7
:0208c50006d259
:0208c600003bf5
:0208c7000643e6
:0208c800003bf3
:0208c90006bb6c
:0208ca00003bf1
:0208cb00068f96
:0208cc00003bef
:0208cd0006bb68
:0208ce00003bed
:0208cf00064fd2
:0208d000003beb
:0208d10006bb64
:0208d200003be9
:0208d30006819c
:0208d400003be7
:0208d50006bb60
:0208d600003be5
:0208d700065bbe
:0208d800003be3
:0208d90006bb5c
:0208da00003be1
:0208db000675a0
:0208dc00003bdf
:0208dd0006bb58
:0208de00003bdd
:0208df000669a8
:0208e000003bdb
:0208e10006bb54
:0208e2000039db
:0208e300078c80
:0208e400003bd7
:0208e50006d239
:0208e600012ee1
:0208e7001cdf14
:0208e8000221eb
:0208e90000000d
:0208ea000321e8
:0208eb000011fa
:0208ec00212bbe
:0208ed00312bad
:0208ee000221e5
:0208ef00000007
:0208f0000321e2
:0208f10000ff06
:0208f200212bb8
:0208f300312ba7
:0208f4000221df
:0208f500000001
:0208f6000321dc
:0208f70000ff00
:0208f800212bb2
:0208f900312ba1
:0208fa000221d9
:0208fb000000fb
:0208fc000321d6
:0208fd000011e8
:0208fe00212bac
:0208ff00312b9b
:020900000121d3
:020901000004f0
:020902001028bb
:020903001cb71f
:020904000039b8
:02090500078c5d
:02090600003bb4
:0209070006d216
:02090800003bb2
:020909000643a3
:02090a00003bb0
:02090b0006bb29
:02090c000039b0
:02090d00078c55
:02090e00003bac
:02090f0006d20e
:02091000012eb6
:020911001cdfe9
:020912000221c0
:02091300620080
:020914000321bd
:020915000000e0
:02091600212b93
:02091700312b82
:020918000221ba
:02091900ffffde
:02091a000321b7
:02091b0000ffdb
:02091c00212b8d
:02091d00312b7c
:02091e000221b4
:02091f0000ffd7
:020920000321b1
:020921000022b2
:02092200212b87
:02092300312b76
:020924000221ae
:02092500ff00d1
:020926000321ab
:020927000000ce
:02092800212b81
:02092900312b70
:02092a000121a9
:02092b000004c6
:02092c00102891
:02092d001cb7f5
:02092e0000398e
:02092f00078c33
:020930000000c5
:02093100003c88
:020932000120a2
:020933001c9e08
:02093400003988
:02093500099225
:020936000e3978
:02093700094174
:0209380001209c
:020939001c4c54
:02093a00102883
:02093b001c4b53
:02093c000e3e6d
:02093d008139fe
:02093e0009436b
:02093f00813ef7
:02094000823ff4
:0209410000397b
:02094200094565
:02094300013e73
:02094400023f70
:02094500003c74
:020946000e3968
:0209470009693c
:0209480001208c
:020949001c4c44
:02094a00102873
:02094b001c4b43
:02094c000e3e5d
:02094d008139ee
:02094e00096b33
:02094f00813ee7
:02095000023f64
:02095100022082
:020952001c9ee9
:0209530003207f
:020954001c5035
:0209550004207c
:020956001cc5be
:0209570003108b
:02095800302845
:020959001c5030
:02095a00430157
:02095b00302842
:02095c001c512c
:02095d00032075
:02095e001c502b
:02095f00231261
:02096000e0377e
:0209610000088c
:0209620003216f
:02096300000191
:02096400302839
:020965001c5024
:0209660043014b
:02096700302836
:020968001c5120
:02096900003953
:02096a000a047d
:02096b00013e4b
:02096c00003950
:02096d000a047a
:02096e000e3940
:02096f00097706
:02097000012064
:020971001c4c1c
:0209720010284b
:020973001c4b1b
:020974000e3e35
:02097500003b45
:020976000a4d28
:02097700001f5f
:02097800000f6e
:02097900022e4c
:02097a0001007a
:02097b00022058
:02097c001cc796
:02097d00032055
:02097e001cc893
:02097f00012055
:020980001c5306
:02098100151946
:02098200051757
:02098300051756
:02098400510c14
:02098500161941
:02098600210a44
:02098700123527
:0209880002303b
:020989006119f2
:02098a00310a30
:02098b00123523
:02098c00023037
:02098d00003830
:02098e00097fdf
:02098f00003c2a
:02099000000065
:02099100003c28
:02099200012042
:020993001c4ff7
:0209940005203c
:020995001c9ea6
:02099600062039
:020997001c4df5
:020998006101fb
:0209990014192f
:02099a00510505
:02099b003037f3
:02099c00000356
:02099d00003721
:02099e00000255
:02099f004119fc
:0209a00001153f
:0209a100121929
:0209a200092e1c
:0209a300010051
:0209a400022e21
:0209a5001c9f95
:0209a600001f30
:0209a700000f3f
:0209a8000a2023
:0209a9001c4ee2
:0209aa00aa0c95
:0209ab00103703
:0209ac00004900
:0209ad00ee1446
:0209ae005037c0
:0209af00004600
:0209b0000e2e09
:0209b100000044
:0209b2000a2019
:0209b3001cd551
:0209b400aa1384
:0209b500000040
:0209b6001037f8
:0209b700000d31
:0209b800aa1380
:0209b90000013b
:0209ba001037f4
:0209bb00001129
:0209bc00aa137c
:0209bd00000236
:0209be001037f0
:0209bf00001620
:0209c000aa1378
:0209c100000331
:0209c2001037ec
:0209c30000260c
:0209c400660cbf
:0209c500903769
:0209c60000032c
:0209c700062008
:0209c8001c9e73
:0209c900061115
:0209ca000037f4
:0209cb00002802
:0209cc005612c1
:0209cd005037a1
:0209ce00000423
:0209cf00061010
:0209d0000037ee
:0209d100002202
:0209d200660eaf
:0209d3000037eb
:0209d400001f02
:0209d500813966
:0209d60009e036
:0209d700660cac
:0209d800903756
:0209d900000418
:0209da00813e5c
:0209db000037e3
:0209dc00001702
:0209dd00061101
:0209de000037e0
:0209df00001402
:0209e0005612ad
:0209e10050378d
:0209e20000040f
:0209e3000610fc
:0209e4000037da
:0209e500000e02
:0209e600013ed0
:0209e7000037d7
:0209e800000b02
:0209e900813952
:0209ea0009ef13
:0209eb00813e4b
:0209ec00823f48
:0209ed000037d1
:0209ee000015f2
:0209ef00013ec7
:0209f000023fc4
:0209f1000037cd
:0209f2000011f2
:0209f30060287a
:0209f4001c4d98
:0209f5002722b7
:0209f600711a74
:0209f7000230cc
:0209f8001104e8
:0209f900111ad1
:0209fa001124c6
:0209fb001935ac
:0209fc000930c0
:0209fd001122c5
:0209fe001935a9
:0209ff000930bd
:020a00002119ba
:020a01000038bb
:020a020009f5f4
:020a0300003cb5
:020a04000220ce
:020a05001c5083
:020a06000320cb
:020a07001c5180
:020a08000420c8
:020a09001c4f80
:020a0a000520c5
:020a0b001c9e2f
:020a0c00361999
:020a0d0056058c
:020a0e0030377f
:020a0f000004e1
:020a100064126e
:020a1100e037cc
:020a1200000ad8
:020a130054127b
:020a1400603749
:020a15000007d8
:020a16002412a8
:020a1700d037d6
:020a18000011cb
:020a1900341295
:020a1a00503753
:020a1b00000ecb
:020a1c00001fb9
:020a1d00003f98
:020a1e00012ea7
:020a1f001c5762
:020a2000022ea4
:020a21000100d2
:020a220011249d
:020a230012358a
:020a240002309e
:020a2500003897
:020a26000a22a2
:020a2700003994
:020a28000a4c76
:020a290084390e
:020a2a000a368a
:020a2b00110eaa
:020a2c00001fa9
:020a2d00003f88
:020a2e00022e96
:020a2f000100c4
:020a300012357d
:020a3100023091
:020a320000388a
:020a33000a3087
:020a3400003987
:020a35000a4c69
:020a3600001f9f
:020a3700001f9e
:020a3800012e8d
:020a39001c7728
:020a3a00022e8a
:020a3b000100b8
:020a3c00112483
:020a3d00123570
:020a3e00023084
:020a3f0000387d
:020a40000a3c6e
:020a4100001f94
:020a4200001f93
:020a4300012e82
:020a44001c771d
:020a4500022e7f
:020a460001208d
:020a4700112478
:020a4800123565
:020a4900023079
:020a4a00003872
:020a4b000a4758
:020a4c00003c6c
:020a4d00012086
:020a4e001c5337
:020a4f00022083
:020a50001c5434
:020a5100032080
:020a52001cc6c0
:020a530004207d
:020a54001cbcc8
:020a5500040b90
:020a560000ff9f
:020a5700221368
:020a580000009c
:020a5900103754
:020a5a00000892
:020a5b00310563
:020a5c00b037b1
:020a5d00000c8b
:020a5e00110e77
:020a5f00220e65
:020a600000375d
:020a610000088b
:020a6200310160
:020a630041123e
:020a6400d03789
:020a650000048b
:020a6600411934
:020a670002216a
:020a680000018b
:020a6900102853
:020a6a001c531b
:020a6b00202841
:020a6c001c5418
:020a6d00003c4b
:020a6e00660e12
:020a6f0045053b
:020a700030371d
:020a710000057e
:020a7200531916
:020a730006106b
:020a7400003749
:020a7500fffa86
:020a7600003c42
:020a7700551315
:020a780000027a
:020a79009037b4
:020a7a00001268
:020a7b006919f7
:020a7c00090b64
:020a7d0000ff78
:020a7e0010372f
:020a7f0000096c
:020a8000090b60
:020a8100000370
:020a82009037ab
:020a830000056c
:020a8400082147
:020a8500001d52
:020a8600003737
:020a8700001b52
:020a8800082143
:020a8900001c4f
:020a8a00003733
:020a8b00001752
:020a8c00054122
:020a8d0000085f
:020a8e0090379f
:020a8f00000d58
:020a900005411e
:020a9100000162
:020a920010371b
:020a930000055c
:020a9400082137
:020a9500001f40
:020a9600003727
:020a9700000b52
:020a9800082133
:020a9900001e3d
:020a9a00003723
:020a9b00000752
:020a9c00054112
:020a9d00000156
:020a9e0010370f
:020a9f00fff561
:020aa00000371d
:020aa100fff75d
:020aa200003c16
:020aa300883f8a
:020aa40001202f
:020aa5001c4fe4
:020aa60001103d
:020aa700102815
:020aa8001c4fe1
:020aa900883e85
:020aaa00083f03
:020aab00003d0c
:020aac00893f80
:020aad00110e28
:020aae0010280e
:020aaf001c4fda
:020ab000893e7d
:020ab100093ffb
:020ab200003d05
:020ab300012020
:020ab4001c4bd9
:020ab500110c22
:020ab6001037f7
:020ab700000637
:020ab80001112a
:020ab900102803
:020aba001c4bd3
:020abb00003702
:020abc00000236
:020abd008e3e6b
:020abe00003df9
:020abf00022013
:020ac0001cd345
:020ac100032010
:020ac2001cd244
:020ac30004200d
:020ac4001cd143
:020ac5004719cf
:020ac600052009
:020ac7001cd041
:020ac800062006
:020ac9001ccf40
:020aca00012009
:020acb001cd439
:020acc00011017
:020acd00111303
:020ace00003cea
:020acf00d0371e
:020ad0000038ec
:020ad100110e04
:020ad200021010
:020ad3002213ec
:020ad400003ce4
:020ad500d03718
:020ad6000030ee
:020ad700220eed
:020ad8008a3e54
:020ad900031008
:020ada003313d4
:020adb00001801
:020adc00d03711
:020add000027f0
:020ade00330ed5
:020adf00040b06
:020ae00000ff15
:020ae100070b01
:020ae200ff0013
:020ae3000718f2
:020ae4000718f1
:020ae5000710f8
:020ae600771384
:020ae700000706
:020ae800d03705
:020ae900000209
:020aea00770e85
:020aeb000717eb
:020aec000717ea
:020aed000410f3
:020aee00003bcb
:020aef000a7784
:020af00084126e
:020af100e037ec
:020af200000ff3
:020af3000421dc
:020af4000001ff
:020af5000510ea
:020af600551396
:020af700000cf1
:020af800e037e5
:020af9000006f5
:020afa000521d4
:020afb000001f8
:020afc000610e2
:020afd0060286f
:020afe001ccf0b
:020aff0050287d
:020b00001cd007
:020b0100740c72
:020b0200402889
:020b03001cd103
:020b0400302897
:020b05001cd200
:020b06002028a5
:020b07001cd3fd
:020b08001028b3
:020b09001cd4fa
:020b0a00003dac
:020b0b00003dab
:020b0c00001fc8
:020b0d00001cca
:020b0e00001fc6
:020b0f00001ec6
:020b1000001fc4
:020b1100001ec4
:020b1200001fc2
:020b1300001fc1
:020b1400001ec1
:020b1500001fbf
:020b1600001ebf
:020b1700001fbd
:020b1800005388
:020b1900005783
:020b1a00003a9f
:020b1b000030a8
:020b1c000034a3
:020b1d000030a6
:020b1e000035a0
:020b1f000032a2
:020b20000032a1
:020b2100002da5
:020b22000030a1
:020b230000319f
:020b2400002da2
:020b250000319d
:020b2600003697
:020b2700004389
:020b2800006863
:020b2900002d9d
:020b2a00003198
:020b2b00003098
:020b2c00003097
:020b2d00005076
:020b2e0000695c
:020b2f0000784c
:020b3000002d96
:020b3100003191
:020b320000635e
:020b330000338d
:020b340000625d
:020b3500002d91
:020b360000328b
:020b370000615b
:020b3800003685
:020b3900003981
:020b3a00002891
:020b3b00003385
:020b3c00006651
:020b3d00003086
:020b3e00003085
:020b3f0000298b
:020b40000000b3
:020b4100002092
:020b420000525f
:020b430000654b
:020b440000743b
:020b4500007539
:020b460000723b
:020b4700006e3e
:020b480000208b
:020b4900007436
:020b4a00006f3a
:020b4b00002088
:020b4c00006344
:020b4d00006145
:020b4e00006c39
:020b4f00006c38
:020b500000653e
:020b5100007230
:020b5200002c75
:020b5300002080
:020b540000702f
:020b550000722c
:020b5600006538
:020b5700007329
:020b5800007328
:020b590000207a
:020b5a00006138
:020b5b00006e2a
:020b5c0000791e
:020b5d00002076
:020b5e00006b2a
:020b5f0000652f
:020b600000791a
:020b6100002072
:020b620000741d
:020b6300006f21
:020b640000206f
:020b650000642a
:020b6600006924
:020b6700007319
:020b680000701b
:020b6900006c1e
:020b6a00006128
:020b6b0000790f
:020b6c00002067
:020b6d00006d19
:020b6e00006520
:020b6f00006e16
:020b700000750e
:020b7100000082
:020b7200002061
:020b7300004937
:020b7400006e11
:020b750000740a
:020b7600006518
:020b770000720a
:020b7800006e0d
:020b7900006119
:020b7a00006c0d
:020b7b00002058
:020b7c00004d2a
:020b7d00006511
:020b7e00006d08
:020b7f00006f05
:020b8000007201
:020b81000079f9
:020b8200002051
:020b830000412f
:020b840000630c
:020b850000630b
:020b8600006508
:020b87000073f9
:020b88000073f8
:020b890000006a
:020b8a00002049
:020b8b00004523
:020b8c000078ef
:020b8d000074f2
:020b8e00006500
:020b8f000072f2
:020b9000006ef5
:020b9100006101
:020b9200006cf5
:020b9300002040
:020b9400004d12
:020b95000065f9
:020b9600006df0
:020b9700006fed
:020b98000072e9
:020b99000079e1
:020b9a00002039
:020b9b00004117
:020b9c000063f4
:020b9d000063f3
:020b9e000065f0
:020b9f000073e1
:020ba0000073e0
:020ba100000052
:020ba200002031
:020ba30000420e
:020ba4000079d6
:020ba5000074da
:020ba6000065e8
:020ba70000202c
:020ba800004dfe
:020ba9000065e5
:020baa00006ddc
:020bab00006fd9
:020bac000072d5
:020bad000079cd
:020bae00002025
:020baf00004103
:020bb0000063e0
:020bb1000063df
:020bb2000065dc
:020bb3000073cd
:020bb4000073cc
:020bb50000003e
:020bb60000201d
:020bb7000057e5
:020bb800006fcc
:020bb9000072c8
:020bba000064d5
:020bbb00002018
:020bbc00004dea
:020bbd000065d1
:020bbe00006dc8
:020bbf00006fc5
:020bc0000072c1
:020bc1000079b9
:020bc200002011
:020bc3000041ef
:020bc4000063cc
:020bc5000063cb
:020bc6000065c8
:020bc7000073b9
:020bc8000073b8
:020bc90000002a
:020bca00002009
:020bcb000045e3
:020bcc00006eb9
:020bcd000074b2
:020bce000065c0
:020bcf000072b2
:020bd000002003
:020bd1000076ac
:020bd2000061c0
:020bd300006cb4
:020bd4000075aa
:020bd5000065b9
:020bd6000020fd
:020bd700005bc1
:020bd8000052c9
:020bd9000045d5
:020bda000054c5
:020bdb00005dbb
:020bdc000020f7
:020bdd00003dd9
:020bde000020f5
:020bdf00000014
:020be0000020f3
:020be1000054be
:020be2000061b0
:020be30000729e
:020be4000067a8
:020be5000065a9
:020be600007499
:020be7000020ec
:020be8000052b9
:020be9000065a5
:020bea00007396
:020beb000065a3
:020bec00007493
:020bed000020e6
:020bee000064a1
:020bef00006f95
:020bf000006e95
:020bf10000659d
:020bf200000001
:020bf3000020e0
:020bf4000043bc
:020bf500006f8f
:020bf600006e8f
:020bf700007488
:020bf800007289
:020bf900006f8b
:020bfa00006c8d
:020bfb000020d8
:020bfc000052a5
:020bfd00006591
:020bfe0000678e
:020bff0000698b
:020c000000737f
:020c010000747d
:020c020000658b
:020c030000727d
:020c04000020ce
:020c05000043aa
:020c0600006c80
:020c0700006586
:020c0800006189
:020c0900007277
:020c0a00006583
:020c0b00006483
:020c0c000000e6
:020c0d00000dd8
:020c0e00000ada
:020c0f00000dd6
:020c1000000ad8
:020c11000000e1
:020c1200000dd3
:020c13000000df
:020c14000001dd
:020c15000002db
:020c16000004d8
:020c17000008d3
:020c18000010ca
:020c19000020b9
:020c1a00004098
:020c1b00008057
:020c1c000100d5
:020c1d000200d3
:020c1e000400d0
:020c1f000800cb
:020c20001000c2
:020c21002000b1
:020c2200400090
:020c230080004f
:020c2400001bb3
:020c2500005b72
:020c260000329a
:020c2700004a81
:020c28000000ca
:020c29000000c9
:020c2a00001bad
:020c2b00005b6c
:020c2c0000487e
:020c2d000000c5
:020c2e000000c4
:020c2f0000645f
:020c3000004a78
:020c310000e7da
:020c32000c5f55
:020c330000734c
:020c3400004a74
:020c350000e1dc
:020c36000cc7e9
:020c370000615a
:020c3800004a70
:020c390000dbde
:020c3a000d2784
:020c3b00007641
:020c3c00004a6c
:020c3d00009f16
:020c3e000c2f79
:020c3f00004c67
:020c4000004a68
:020c41003f0072
:020c42000c2f75
:020c430000456a
:020c4400004a64
:020c4500009518
:020c46000c2f71
:020c4700006546
:020c4800004a60
:020c4900009a0f
:020c4a000c2f6d
:020c4b00004364
:020c4c00004a5c
:020c4d0000c2e3
:020c4e000c2f69
:020c4f00006340
:020c5000004a58
:020c510000c4dd
:020c52000c2f65
:020c5300004956
:020c5400004a54
:020c5500053a5e
:020c56000c2f61
:020c5700006b30
:020c5800004a50
:020c590000adec
:020c5a000c2f5d
:020c5b00000097
:020c5c00004a4c
:020c5d0000d5c0
:020c5e000c2f59
:020c5f00004152
:020c6000004a48
:020c610001137d
:020c62000c5f25
:020c630000424d
:020c6400004a44
:020c6500012d5f
:020c66000c5f21
:020c670000503b
:020c6800004a40
:020c690006f78c
:020c6a000c5f1d
:020c6b00006423
:020c6c00004a3c
:020c6d00027013
:020c6e000c5f19
:020c6f00006e15
:020c7000004a38
:020c7100026916
:020c72000c5f15
:020c7300006619
:020c7400004a34
:020c750002e497
:020c76000c5f11
:020c7700006c0f
:020c7800004a30
:020c790002d7a0
:020c7a000c5f0d
:020c7b00006d0a
:020c7c00005323
:020c7d00015024
:020c7e000db7b0
:020c7f000077fc
:020c800000531f
:020c8100015020
:020c82000db7ac
:020c83000073fc
:020c840000531b
:020c850001501c
:020c86000db7a8
:020c8700006308
:020c8800005317
:020c8900015018
:020c8a000db7a4
:020c8b000074f3
:020c8c00005313
:020c8d00015014
:020c8e000db7a0
:020c8f000069fa
:020c900000530f
:020c9100015010
:020c92000db79c
:020c93000061fe
:020c940000530b
:020c950001500c
:020c96000db798
:020c9700006fec
:020c9800005307
:020c9900015008
:020c9a000db794
:020c9b000065f2
:020c9c00005303
:020c9d00015004
:020c9e000db790
:020c9f000062f1
:020ca000004a08
:020ca100014010
:020ca2000c5fe5
:020ca3000072dd
:020ca400004a04
:020ca50000fa53
:020ca6000c5fe1
:020ca7000076d5
:020ca800004a00
:020ca90002bd8a
:020caa000c5fdd
:020cab000068df
:020cac00004afc
:020cad0000ee57
:020cae000c5fd9
:020caf000078cb
:020cb000004af8
:020cb10000d56c
:020cb2000c2f05
:020cb30000201f
:020cb400004af4
:020cb50000e756
:020cb6000c5fd1
:020cb70000003b
:020cb800004af0
:020cb900014fe9
:020cba000c5fcd
:020cbb000068cf
:020cbc00004aec
:020cbd0000ee47
:020cbe000cbb6d
:020cbf000078bb
:020cc000004ae8
:020cc10000d55c
:020cc2000c2ff5
:020cc30000002f
:020cc400004ae4
:020cc50000ee3f
:020cc6000cbb65
:020cc700006ebd
:020cc800004ae0
:020cc900054bd9
:020cca000cc755
:020ccb00006cbb
:020ccc00004adc
:020ccd0004c160
:020cce000cc751
:020ccf000070b3
:020cd000004ad8
:020cd10004cc51
:020cd2000cc74d
:020cd3000030ef
:020cd400004ad4
:020cd50004d742
:020cd6000cc749
:020cd7000031ea
:020cd800004ad0
:020cd90004e233
:020cda000cc745
:020cdb000038df
:020cdc00004acc
:020cdd0004ed24
:020cde000cc741
:020cdf000034df
:020ce000004ac8
:020ce10004fc11
:020ce2000cc73d
:020ce30000739c
:020ce400004ac4
:020ce500049574
:020ce6000cc739
:020ce700007497
:020ce800004ac0
:020ce90004aa5b
:020cea000cc735
:020ceb000062a5
:020cec00004abc
:020ced000140c4
:020cee000cc731
:020cef00007291
:020cf000004ab8
:020cf10000fa07
:020cf2000cc72d
:020cf300007788
:020cf4000053ab
:020cf5000150ac
:020cf6000db738
:020cf7000052a9
:020cf800004ab0
:020cf900050ee6
:020cfa000cc725
:020cfb000057a0
:020cfc00004aac
:020cfd000528c8
:020cfe000cc721
:020cff0000599a
:020d0000004aa7
:020d0100044ba1
:020d02000cc71c
:020d0300004da1
:020d0400004aa3
:020d0500045692
:020d06000cc718
:020d07000044a6
:020d0800004a9f
:020d0900046183
:020d0a000cc714
:020d0b0000489e
:020d0c00004a9b
:020d0d00046c74
:020d0e000cc710
:020d0f0000558d
:020d1000004a97
:020d1100047c60
:020d12000cc70c
:020d130000538b
:020d1400004a93
:020d1500048a4e
:020d16000cc708
:020d1700006b6f
:020d1800004a8f
:020d190000ad2b
:020d1a000cc704
:020d1b00007660
:020d1c00004a8b
:020d1d0002bd15
:020d1e000cc700
:020d1f0000785a
:020d2000004a87
:020d210000d5fb
:020d22000c2f94
:020d23000000ce
:020d2400004a83
:020d250000e1eb
:020d26000cc7f8
:020d2700006169
:020d2800004a7f
:020d2900055d66
:020d2a000d2793
:020d2b00007353
:020d2c00004a7b
:020d2d0005b40b
:020d2e000d278f
:020d2f0000635f
:020d3000004a77
:020d310005e3d8
:020d32000d278b
:020d3300006955
:020d3400004a73
:020d350005eec9
:020d36000d2787
:020d3700006555
:020d3800004a6f
:020d390005feb5
:020d3a000d2783
:020d3b00007046
:020d3c00004a6b
:020d3d00061a94
:020d3e000d277f
:020d3f0000644e
:020d4000004a67
:020d4100060f9b
:020d42000d277b
:020d4300006648
:020d4400004a63
:020d4500057433
:020d46000d2777
:020d4700006d3d
:020d4800004a5f
:020d490006ecb6
:020d4a000d2773
:020d4b00006244
:020d4c00004a5b
:020d4d00057926
:020d4e000d276f
:020d4f00003072
:020d5000004a57
:020d5100063961
:020d52000d276b
:020d530000316d
:020d5400004a53
:020d5500064353
:020d56000d2767
:020d5700003268
:020d5800004a4f
:020d5900064f43
:020d5a000d2763
:020d5b00003363
:020d5c00004a4b
:020d5d00065b33
:020d5e000d275f
:020d5f0000345e
:020d6000004a47
:020d6100066921
:020d62000d275b
:020d6300003559
:020d6400004a43
:020d6500067511
:020d66000d2757
:020d6700003654
:020d6800004a3f
:020d6900068101
:020d6a000d2753
:020d6b0000374f
:020d6c00004a3b
:020d6d00068fef
:020d6e000d274f
:020d6f0000384a
:020d7000004a37
:020d710006bbbf
:020d72000d274b
:020d7300003945
:020d7400004a33
:020d750006d2a4
:020d76000d2747
:020d7700007208
:020d7800004a2f
:020d790005660d
:020d7a000d2743
:020d7b00007402
:020d7c00004a2b
:020d7d000580ef
:020d7e000d273f
:020d7f00006a08
:020d8000004a27
:020d8100058fdc
:020d82000d273b
:020d8300006e00
:020d8400004a23
:020d8500054b1c
:020d86000d2737
:020d8700005317
:020d8800004a1f
:020d8900075011
:020d8a000d2733
:020d8b00005214
:020d8c00004a1b
:020d8d00076eef
:020d8e000d272f
:020d8f00005012
:020d9000004a17
:020d910006f763
:020d92000d272b
:020d9300005608
:020d9400004a13
:020d9500070550
:020d96000d2727
:020d9700006bef
:020d9800004a0f
:020d990000adab
:020d9a000d2723
:020d9b000076e0
:020d9c00004a0b
:020d9d00009fb5
:020d9e000d271f
:020d9f000068ea
:020da000004a07
:020da10000f45c
:020da2000d271b
:020da3000078d6
:020da400004a03
:020da50000d577
:020da6000c2f10
:020da70000004a
:020da800004aff
:020da90000db6d
:020daa000d2713
:020dab00000d39
:020dac000052f3
:020dad000265dd
:020dae000c2f08
:020daf000071d1
:020db0000052ef
:020db1000265d9
:020db2000c2f04
:020db30000003e
:020db400004af3
:020db50001b388
:020db6000dab83
:020db700002c0e
:020db800004aef
:020db9000197a0
:020dba000dd357
:020dbb00002016
:020dbc00004aeb
:020dbd0001979c
:020dbe000dd353
:020dbf00002d05
:020dc000004ae7
:020dc100019798
:020dc2000ddf43
:020dc300006ec0
:020dc400004ae3
:020dc500019794
:020dc6000ddf3f
:020dc700000d1d
:020dc8000052d7
:020dc9000173b4
:020dca000c2fec
:020dcb000071b5
:020dcc000052d3
:020dcd000265bd
:020dce000c2fe8
:020dcf00000022
:020dd000004ad7
:020dd100015ec1
:020dd2000db75b
:020dd300000d11
:020dd4000052cb
:020dd50001b665
:020dd6000c2fe0
:020dd7000071a9
:020dd8000052c7
:020dd9000265b1
:020dda000c2fdc
:020ddb00000016
:020ddc00004acb
:020ddd0001b360
:020dde000dd333
:020ddf00000d05
:020de0000052bf
:020de10001bb54
:020de2000c2fd4
:020de30000719d
:020de4000052bb
:020de5000265a5
:020de6000c2fd0
:020de70000000a
:020de800004abf
:020de90001b354
:020dea000ddf1b
:020deb00007c8a
:020dec00004db8
:020ded000061a3
:020dee0000699a
:020def00006e94
:020df0000020e1
:020df100004db3
:020df20000659a
:020df300006e90
:020df400007588
:020df500007c80
:020df6000000fb
:020df7000020da
:020df800006198
:020df9000020d8
:020dfa00003dba
:020dfb000020d6
:020dfc00006194
:020dfd00007084
:020dfe00007083
:020dff00006c86
:020e0000006987
:020e010000638c
:020e020000618d
:020e0300007479
:020e0400006983
:020e0500006f7c
:020e0600006e7c
:020e07000000e9
:020e08000020c8
:020e0900007374
:020e0a000020c6
:020e0b00003da8
:020e0c000020c4
:020e0d00007370
:020e0e00007969
:020e0f0000736e
:020e100000746c
:020e110000657a
:020e1200006d71
:020e13000020bd
:020e1400007369
:020e1500006576
:020e1600007466
:020e1700007564
:020e1800007068
:020e19000000d7
:020e1a000020b6
:020e1b00006471
:020e1c000020b4
:020e1d00003d96
:020e1e000020b2
:020e1f0000646d
:020e200000656b
:020e210000626d
:020e2200007559
:020e2300006766
:020e24000000cc
:020e25000020ab
:020e2600007654
:020e27000020a9
:020e2800003d8b
:020e29000020a7
:020e2a00007650
:020e2b00006560
:020e2c00007252
:020e2d00007350
:020e2e00006959
:020e2f00006f52
:020e3000006e52
:020e31000000bf
:020e320000209e
:020e3300004c71
:020e340000209c
:020e3500003d7e
:020e360000209a
:020e3700004c6d
:020e3800006f49
:020e3900006156
:020e3a00006452
:020e3b00002095
:020e3c00005064
:020e3d00007241
:020e3e00006f43
:020e3f0000674a
:020e400000723e
:020e410000614e
:020e4200006d41
:020e430000208d
:020e4400002a82
:020e4500002e7d
:020e4600006d3d
:020e4700006544
:020e4800006d3b
:020e49000000a7
:020e4a00002086
:020e4b00004560
:020e4c00002084
:020e4d00003d66
:020e4e00002082
:020e4f0000455c
:020e500000633d
:020e5100006837
:020e5200006f2f
:020e530000207d
:020e5400004f4d
:020e5500004e4d
:020e560000009a
:020e5700002079
:020e5800006533
:020e5900002077
:020e5a00003d59
:020e5b00002075
:020e5c0000652f
:020e5d00006330
:020e5e0000682a
:020e5f00006f22
:020e6000002070
:020e6100004f40
:020e6200004648
:020e6300004647
:020e640000008c
:020e650000206b
:020e6600004347
:020e6700002069
:020e6800003d4b
:020e6900002067
:020e6a00004343
:020e6b00004c39
:020e6c00005331
:020e6d00002063
:020e6e00004f33
:020e6f00004e33
:020e7000000080
:020e710000205f
:020e720000631b
:020e730000205d
:020e7400003d3f
:020e750000205b
:020e7600004337
:020e7700004c2d
:020e7800005325
:020e7900002057
:020e7a00004f27
:020e7b0000462f
:020e7c0000462e
:020e7d00000073
:020e7e00002052
:020e7f00004928
:020e8000002050
:020e8100003d32
:020e820000204e
:020e8300004924
:020e840000521a
:020e850000511a
:020e860000204a
:020e8700006dfc
:020e8800006107
:020e89000073f4
:020e8a00006bfb
:020e8b00000065
:020e8c00007ce8
:020e8d00007ce7
:020e8e00007ce6
:020e8f00000061
:020e900000035d
:020e9100007ce3
:020e9200004d11
:020e93000065f8
:020e9400006def
:020e9500006fec
:020e96000072e8
:020e97000079e0
:020e9800002f29
:020e9900005205
:020e9a000065f1
:020e9b000067ee
:020e9c000069eb
:020e9d000073e0
:020e9e000074de
:020e9f000065ec
:020ea0000072de
:020ea100002f20
:020ea200004905
:020ea300004ffe
:020ea40000202c
:020ea500004dfe
:020ea6000065e5
:020ea700006edb
:020ea8000075d3
:020ea900007ccb
:020eaa00000046
:020eab00002025
:020eac00004103
:020ead00002023
:020eae00003d05
:020eaf00002021
:020eb000006dd3
:020eb1000065da
:020eb200006dd1
:020eb300006fce
:020eb4000072ca
:020eb5000079c2
:020eb60000201a
:020eb7000041f8
:020eb8000063d5
:020eb9000063d4
:020eba000065d1
:020ebb000073c2
:020ebc000073c1
:020ebd00002013
:020ebe00006dc5
:020ebf00006fc2
:020ec0000064cc
:020ec1000065ca
:020ec20000002e
:020ec30000200d
:020ec4000042ea
:020ec50000200b
:020ec600003ded
:020ec700002009
:020ec800006dbb
:020ec9000065c2
:020eca00006db9
:020ecb00006fb6
:020ecc000072b2
:020ecd000079aa
:020ece00002002
:020ecf000042df
:020ed0000079a7
:020ed1000074ab
:020ed2000065b9
:020ed3000020fd
:020ed400006daf
:020ed500006fac
:020ed6000064b6
:020ed7000065b4
:020ed800000018
:020ed9000020f7
:020eda000050c6
:020edb000020f5
:020edc00003dd7
:020edd000020f3
:020ede000065ad
:020edf00007899
:020ee00000749c
:020ee1000065aa
:020ee20000729c
:020ee300006e9f
:020ee4000061ab
:020ee500006c9f
:020ee6000020ea
:020ee700006d9c
:020ee8000065a3
:020ee900006d9a
:020eea00006f97
:020eeb00007293
:020eec0000798b
:020eed000020e3
:020eee000050b2
:020eef000061a0
:020ef000006799
:020ef10000659a
:020ef2000000fe
:020ef3000020dd
:020ef400006d8f
:020ef5000020db
:020ef600003dbd
:020ef7000020d9
:020ef800004dab
:020ef900006592
:020efa00006d89
:020efb00006f86
:020efc00007282
:020efd0000797a
:020efe000020d2
:020eff0000777a
:020f000000727d
:020f0100006985
:020f0200007479
:020f0300006587
:020f0400002fbc
:020f0500007278
:020f0600006584
:020f0700006187
:020f0800006483
:020f09000000e6
:020f0a000020c5
:020f0b00006480
:020f0c000020c3
:020f0d00003da5
:020f0e000020c1
:020f0f00004d93
:020f100000657a
:020f1100006d71
:020f1200006f6e
:020f130000726a
:020f1400007962
:020f15000020ba
:020f1600006475
:020f1700007563
:020f1800006d6a
:020f1900007066
:020f1a000000d5
:020f1b000020b4
:020f1c00006e65
:020f1d000020b2
:020f1e00003d94
:020f1f000020b0
:020f2000004e81
:020f2100006569
:020f2200007855
:020f2300007458
:020f24000020ab
:020f2500006466
:020f2600007554
:020f2700006d5b
:020f2800007057
:020f29000000c6
:020f2a000020a5
:020f2b0000665e
:020f2c000020a3
:020f2d00003d85
:020f2e000020a1
:020f2f0000665a
:020f3000006956
:020f3100006c52
:020f3200006c51
:020f330000209c
:020f3400006d4e
:020f3500006555
:020f3600006d4c
:020f3700006f49
:020f3800007245
:020f390000793d
:020f3a00002095
:020f3b00006153
:020f3c0000644f
:020f3d0000644e
:020f3e0000723f
:020f3f0000654b
:020f400000733c
:020f410000733b
:020f4200002f7e
:020f4300007636
:020f440000614a
:020f4500006c3e
:020f4600007534
:020f4700006543
:020f4800002087
:020f490000287e
:020f4a00004164
:020f4b00004163
:020f4c00004162
:020f4d00004161
:020f4e00002c75
:020f4f0000762a
:020f5000007629
:020f5100007628
:020f5200007627
:020f5300002973
:020f540000009b
:020f550000207a
:020f5600006c2d
:020f5700002078
:020f5800003d5a
:020f5900002076
:020f5a00007322
:020f5b0000652f
:020f5c0000741f
:020f5d00002072
:020f5e00006c25
:020f5f0000652b
:020f6000006e21
:020f6100006727
:020f6200007419
:020f6300006824
:020f6400002f5c
:020f6500006921
:020f6600006e1b
:020f6700006325
:020f6800007215
:020f6900006521
:020f6a00006d18
:020f6b0000651f
:020f6c00006e15
:020f6d0000740e
:020f6e00002061
:020f6f00002858
:020f7000004c33
:020f7100004c32
:020f7200004c31
:020f7300004c30
:020f7400002c4f
:020f7500006911
:020f7600006910
:020f770000690f
:020f780000690e
:020f790000294d
:020f7a00000075
:020f7b00000074
:020f7c00002053
:020f7d000077fb
:020f7e00002051
:020f7f00003d33
:020f800000204f
:020f8100005717
:020f82000072fb
:020f8300006903
:020f84000074f7
:020f8500006505
:020f8600002f3a
:020f87000072f6
:020f8800006502
:020f8900006105
:020f8a00006401
:020f8b00002044
:020f8c000070f3
:020f8d00006ff3
:020f8e000072ef
:020f8f000074ec
:020f9000002f30
:020f91000072ec
:020f92000065f8
:020f93000067f5
:020f94000069f2
:020f95000073e7
:020f96000074e5
:020f97000065f3
:020f98000072e5
:020f9900000056
:020f9a00002035
:020f9b000073e1
:020f9c00002033
:020f9d00003d15
:020f9e00002031
:020f9f000053fd
