:020000000039c5
:020001000010ed
:020002000039c3
:0200030005a94d
:020004000039c1
:0200050005ac48
:020006000039bf
:0200070005af43
:020008000039bd
:0200090005bb35
:02000a000000f4
:02000b000000f3
:02000c000000f2
:02000d000000f1
:02000e000000f0
:02000f000000ef
:020010000046a8
:020011000a2eb5
:020012000010dc
:020013000b2eb2
:020014000011d9
:020015000f2eac
:0200160011e0f7
:02001700072eb2
:0200180011d8fd
:020019000d2eaa
:02001a001220b2
:02001b000e2ea7
:02001c00126070
:02001d000121bf
:02001e0006fbdf
:02001f001028a7
:0200200011cb02
:020021001028a5
:0200220011ccff
:020023000121b9
:020024000000da
:02002500103495
:020026000001d7
:02002700103493
:020028000004d2
:02002900103491
:02002a000005cf
:02002b0010348f
:02002c000006cc
:02002d000121af
:02002e0012209e
:02002f0010348b
:020030000000ce
:020031000121ab
:0200320011ae0d
:02003300103487
:020034000002c8
:020035000121a7
:0200360012a016
:02003700103483
:020038000003c3
:020039000121a3
:02003a000002c2
:02003b0010347f
:02003c000007bb
:02003d0001219f
:02003e00784008
:02003f0010347b
:020040000008b6
:0200410001219b
:02004200017d3e
:02004300103477
:020044000009b1
:02004500002792
:020046000007b1
:02004700012e88
:020048000000b6
:02004900011f95
:02004a00007f35
:02004b00110e94
:02004c0030265c
:02004d00112b75
:02004e00013877
:02004f00004d62
:02005000002688
:0200510001218b
:0200520007e6bf
:02005300102873
:0200540011d0c9
:02005500012187
:020056000001a7
:0200570010286f
:0200580011d1c4
:02005900012183
:02005a000001a3
:02005b0010286b
:02005c0011d2bf
:02005d00110e82
:02005e00102868
:02005f0011d3bb
:02006000102866
:0200610011d4b8
:02006200102864
:0200630011d5b5
:02006400823eda
:02006500033e58
:02006600053e55
:02006700063e53
:02006800873ed1
:020069000e3e49
:02006a000a3e4c
:02006b00003f54
:02006c00043f4f
:02006d00083f4a
:02006e00093f48
:02006f00003b54
:0200700004f199
:02007100003b52
:0200720005285f
:02007300803fcc
:02007400b133a6
:02007500003f4a
:02007600014146
:02007700008007
:0200780010373f
:02007900000580
:02007a00003b49
:02007b0004700f
:02007c00003b47
:02007d0003433b
:02007e00033944
:02007f0000730c
:02008000033e3d
:0200810001215b
:02008200007309
:020083001f2b31
:02008400032d4a
:0200850011cd9b
:02008600033a3b
:02008700873eb2
:02008800012154
:02008900000174
:02008a0000373d
:02008b00000370
:02008c00073e2d
:02008d00110e52
:02008e00102838
:02008f0011b1ad
:02009000003c32
:02009100873ea8
:020092000c2e32
:0200930006382d
:02009400003b2f
:020095000376f0
:02009600003b2d
:0200970003b6ae
:02009800012045
:0200990011b1a3
:02009a00110c47
:02009b0090379c
:02009c00000260
:02009d00073e1c
:02009e00003c24
:02009f00873e9a
:0200a000012e2f
:0200a10011d07c
:0200a200011f3c
:0200a300000556
:0200a400122424
:0200a500003b1e
:0200a600045202
:0200a70001381e
:0200a80000a4b2
:0200a9000c2e1b
:0200aa0006dc72
:0200ab00003b18
:0200ac000376d9
:0200ad00012030
:0200ae0011b18e
:0200af00110c32
:0200b000903787
:0200b10000024b
:0200b200073e07
:0200b300003c0f
:0200b400823e8a
:0200b500003c0d
:0200b600023e08
:0200b700003c0b
:0200b80002390b
:0200b90000c67f
:0200ba000c2e0a
:0200bb0006f04d
:0200bc00003b07
:0200bd000376c8
:0200be00003b05
:0200bf0003c478
:0200c0000c2e04
:0200c10006f641
:0200c200003b01
:0200c3000376c2
:0200c400003bff
:0200c50003c472
:0200c600003cfc
:0200c700003bfc
:0200c80000b87e
:0200c900110e16
:0200ca001028fc
:0200cb0011b270
:0200cc001028fa
:0200cd0011b36d
:0200ce000c2ef6
:0200cf000847e0
:0200d0000039f5
:0200d100013def
:0200d200003bf1
:0200d30000b873
:0200d4000c2ef0
:0200d5000c4cd1
:0200d6000039ef
:0200d700013de9
:0200d800003beb
:0200d90000b86d
:0200da000c2eea
:0200db000b0612
:0200dc000039e9
:0200dd00013de3
:0200de00873e5b
:0200df00003be4
:0200e00000b866
:0200e1000c2ee3
:0200e200091df6
:0200e3000039e2
:0200e400013ddc
:0200e500003bde
:0200e60000b860
:0200e7000c2edd
:0200e8000dd633
:0200e9000039dc
:0200ea00013dd6
:0200eb00003bd8
:0200ec0000b85a
:0200ed000c2ed7
:0200ee000d4fb4
:0200ef000039d6
:0200f000013dd0
:0200f100003bd2
:0200f20000b854
:0200f300003bd0
:0200f40003bd4a
:0200f5000120e8
:0200f60011bf38
:0200f700181ad5
:0200f800011fe6
:0200f900000ff6
:0200fa0082334f
:0200fb00003bc8
:0200fc000452ac
:0200fd00003bc6
:0200fe0003bd40
:0200ff000830c7
:020100000138c4
:0201010000fa02
:02010200003bc0
:0201030003bd3a
:02010400003cbd
:020105000120d7
:0201060011c620
:02010700010fe6
:020108000001f4
:0201090090372d
:02010a000008eb
:02010b00220ec2
:02010c002028a9
:02010d0011cf10
:02010e000c2eb5
:02010f00065890
:020110000037b6
:020111000007e5
:020112000221c8
:020113000003e7
:020114002028a1
:0201150011cf08
:020116000c2ead
:02011700067070
:020118001028ad
:0201190011c60d
:02011a00003ba8
:02011b00037669
:02011c00003ba6
:02011d0003bd20
:02011e00003ca3
:02011f000120bd
:0201200011c507
:02012100010fcc
:020122000001da
:02012300903713
:020124000005d4
:020125000c2e9e
:02012600069c35
:0201270000379f
:020128000003d2
:020129000c2e9a
:02012a00068845
:02012b0010289a
:02012c0011c5fb
:02012d00003b95
:02012e00037656
:02012f00003b93
:0201300003bd0d
:02013100003c90
:020132000c2e91
:0201330006b014
:02013400003b8e
:0201350003764f
:02013600003b8c
:02013700040db5
:0201380020287d
:0201390011bff4
:02013a00003b88
:02013b0003c4fb
:02013c00003c85
:02013d00003b85
:02013e00039d1f
:02013f00003b83
:0201400003af0b
:02014100003c80
:0201420001209a
:0201430011b8f1
:02014400073979
:02014500014770
:020146001a3568
:0201470010287e
:0201480011bce8
:02014900012192
:02014a00303053
:02014b0010287a
:02014c0011b6ea
:02014d00102878
:02014e0011b7e7
:02014f00003c72
:0201500001208c
:0201510011b8e3
:0201520007396b
:02015300015554
:020154001a355a
:02015500022086
:0201560011b6e0
:02015700032083
:0201580011b7dd
:02015900011f84
:02015a0000079c
:02015b0002158b
:02015c00131579
:02015d00013867
:02015e00015b43
:02015f00302846
:0201600011b7d5
:02016100120c7e
:02016200202853
:0201630011b6d3
:02016400003c5d
:02016500003b5d
:0201660001890d
:02016700003b5b
:0201680003bdd5
:02016900012d66
:02016a0011b9c9
:02016b00012071
:02016c0011bcc4
:02016d0011136c
:02016e00006d22
:02016f00103747
:02017000000489
:02017100123347
:02017200003754
:0201730000107a
:02017400102f4a
:0201750011afc8
:02017600102f48
:0201770011b0c5
:02017800042061
:0201790011cfa4
:02017a00040b74
:02017b0000037f
:02017c009037ba
:02017d0000047c
:02017e0012224b
:02017f00003747
:0201800000037a
:02018100102646
:02018200122247
:02018300002654
:02018400003b3e
:02018500045222
:02018600003b3c
:0201870003bdb6
:02018800003c39
:02018900012053
:02018a0011b6ac
:02018b00003b37
:02018c0003ed81
:02018d00231934
:02018e0001204e
:02018f0011b7a6
:02019000003b32
:0201910003ed7c
:02019200021752
:02019300021751
:02019400320c2b
:02019500202820
:0201960011b99d
:02019700012144
:02019800303005
:0201990010282c
:02019a0011b69c
:02019b0010282a
:02019c0011b799
:02019d0001203f
:02019e0011b896
:02019f00102826
:0201a00011bd8f
:0201a10007391c
:0201a20001a4b6
:0201a3001a350b
:0201a400003c1d
:0201a500003b1d
:0201a600015006
:0201a700003c1a
:0201a800003b1a
:0201a90001bf94
:0201aa00003b18
:0201ab0001ce83
:0201ac00003c15
:0201ad00003b15
:0201ae0001bf8f
:0201af0002202c
:0201b00011ba82
:0201b100220921
:0201b200032028
:0201b30011bd7c
:0201b400331303
:0201b500002d1b
:0201b600903780
:0201b700000343
:0201b800020340
:0201b900000143
:0201ba002028fb
:0201bb0011ba77
:0201bc00003b06
:0201bd0001ce71
:0201be00003c03
:0201bf0001201d
:0201c00011b676
:0201c100003b01
:0201c20003ed4b
:0201c3002319fe
:0201c400012018
:0201c50011b770
:0201c600003bfc
:0201c70003ed46
:0201c80002171c
:0201c90002171b
:0201ca00320cf5
:0201cb002028ea
:0201cc0011ba66
:0201cd00003cf4
:0201ce0001200e
:0201cf0011ba63
:0201d00002200b
:0201d10011b962
:0201d200032008
:0201d30011bc5d
:0201d400042005
:0201d50011cf48
:0201d6003313e1
:0201d7000077af
:0201d80090375e
:0201d90000051f
:0201da00211ae8
:0201db001135dc
:0201dc000037ea
:0201dd000074ac
:0201de003313d9
:0201df000073ab
:0201e000903756
:0201e100000e0e
:0201e200211ae0
:0201e300032ee9
:0201e40006e033
:0201e5000120f7
:0201e60011ba4c
:0201e7003104e1
:0201e800131ae8
:0201e9003122c1
:0201ea001233ce
:0201eb00120cf4
:0201ec002135bb
:0201ed000037d9
:0201ee000063ac
:0201ef003313c8
:0201f0000063aa
:0201f100903745
:0201f200000ffc
:0201f300211acf
:0201f400032ed8
:0201f50006e022
:0201f6000120e6
:0201f70011ba3b
:0201f8003104d0
:0201f900131ad7
:0201fa003122b0
:0201fb001109e8
:0201fc001233bc
:0201fd00120ae4
:0201fe002135a9
:0201ff000037c7
:020200000051ab
:020201003313b5
:02020200007486
:02020300903732
:02020400000eea
:02020500211abc
:02020600032ec5
:0202070006e00f
:020208000120d3
:0202090011ba28
:02020a003104bd
:02020b00131ac4
:02020c0031229d
:02020d001233aa
:02020e00120ece
:02020f00213597
:020210000037b5
:020211000040ab
:020212003313a4
:02021300006980
:02021400903721
:020215000010d7
:02021600211aab
:02021700032eb4
:0202180006e0fe
:020219000120c2
:02021a0011ba17
:02021b003104ac
:02021c00131ab3
:02021d0031228c
:02021e00123399
:02021f00120ebd
:02022000213586
:02022100120ebb
:02022200213584
:020223000037a2
:02022400002dab
:02022500331391
:02022600006175
:0202270090370e
:020228000007cd
:02022900211a98
:02022a0013338c
:02022b00310a96
:02022c0011358a
:02022d00003798
:02022e000023ab
:02022f00331387
:02023000006f5d
:02023100903704
:020232000007c3
:02023300211a8e
:02023400133382
:02023500310c8a
:02023600113580
:0202370000378e
:020238000019ab
:0202390033137d
:02023a0000655d
:02023b009037fa
:02023c000007b9
:02023d00211a84
:02023e00133378
:02023f00310e7e
:02024000113576
:02024100003784
:02024200000fab
:02024300331373
:02024400006d4b
:020245009037f0
:02024600000bab
:02024700012d87
:0202480011b9ea
:02024900032090
:02024a0011cfd2
:02024b00030ba3
:02024c000003ad
:02024d00103768
:02024e000002ac
:02024f00202667
:02025000112972
:02025100002685
:02025200003b6f
:0202530003bde9
:02025400003b6d
:0202550003bde7
:02025600003c6a
:020257000000a5
:02025800003b69
:0202590003bde3
:02025a00003c66
:02025b00853ede
:02025c00012d72
:02025d0011afdf
:02025e00102f5f
:02025f0011b0dc
:02026000003963
:02026100026435
:02026200012d6c
:0202630011b0d8
:02026400121b6b
:02026500003b5c
:02026600045240
:02026700003b5a
:0202680003bdd4
:0202690000266d
:02026a00021f71
:02026b00000f82
:02026c0001206f
:02026d0011c5b9
:02026e00110c71
:02026f009037c6
:02027000001b71
:02027100011f6b
:02027200000783
:02027300012068
:0202740011cfa8
:02027500010b7b
:02027600000383
:0202770010373e
:02027800000282
:0202790010264d
:02027a0012244c
:02027b0000265b
:02027c00003b45
:02027d00045229
:02027e00013845
:02027f00027308
:02028000003b41
:0202810003bdbb
:02028200023840
:02028300027106
:0202840005393a
:0202850002acc9
:02028600102f37
:0202870011afb5
:02028800053e31
:0202890000393a
:02028a0002acc4
:02028b00011f51
:02028c00000769
:02028d0001204e
:02028e0011cf8e
:02028f00010b61
:02029000000369
:02029100103724
:02029200000268
:02029300102633
:02029400330e27
:02029500122431
:02029600230c37
:0202970012242f
:0202980002174b
:0202990002174a
:02029a00230c33
:02029b00321d12
:02029c0000263a
:02029d00003b24
:02029e00045208
:02029f00013824
:0202a000028dcd
:0202a100003b20
:0202a20003bd9a
:0202a30002381f
:0202a400028bcb
:0202a500053919
:0202a60002aca8
:0202a700102f16
:0202a80011af94
:0202a900053e10
:0202aa00003919
:0202ab0002aca3
:0202ac00003b15
:0202ad0003bd8f
:0202ae00003c12
:0202af00012e1e
:0202b00011c07b
:0202b100121b1e
:0202b200003b0f
:0202b3000452f3
:0202b400003b0d
:0202b50003bd87
:0202b600002620
:0202b700021f24
:0202b80000073d
:0202b900011f23
:0202ba0000073b
:0202bb0012240b
:0202bc00003b05
:0202bd000452e9
:0202be00013805
:0202bf0002bb80
:0202c000003b01
:0202c10003bd7b
:0202c200023800
:0202c30002b97e
:0202c400102ff9
:0202c50011af77
:0202c600003bfb
:0202c70003bd75
:0202c800003cf8
:0202c9000c2ef9
:0202ca0006b07c
:0202cb00003bf6
:0202cc000376b7
:0202cd00003bf4
:0202ce00040d1d
:0202cf003028d5
:0202d00011c15a
:0202d100372aca
:0202d200000129
:0202d3002028e1
:0202d40011c057
:0202d500372ac6
:0202d600000224
:0202d700003bea
:0202d80003bd64
:0202d900003ce7
:0202da000c2ee8
:0202db0006b06b
:0202dc00003be5
:0202dd000376a6
:0202de00003be3
:0202df00040d0c
:0202e000030b0e
:0202e100000714
:0202e200372ab9
:0202e300000019
:0202e4003042a6
:0202e5002028cf
:0202e60011c243
:0202e700372ab4
:0202e800000311
:0202e900003bd8
:0202ea0003bd52
:0202eb00003cd5
:0202ec00012de2
:0202ed0011c03e
:0202ee00121be1
:0202ef00003bd2
:0202f0000452b6
:0202f100003bd0
:0202f20003bd4a
:0202f3000026e3
:0202f4000520e3
:0202f50011c135
:0202f600524371
:0202f700011fe5
:0202f8000007fd
:0202f9001224cd
:0202fa00003bc7
:0202fb000452ab
:0202fc000138c7
:0202fd0002f904
:0202fe00003bc3
:0202ff0003bd3d
:020300000238c1
:0203010002f701
:02030200102fba
:0203030011af38
:02030400003bbc
:0203050003bd36
:02030600003cb9
:020307000c2eba
:0203080006b03d
:02030900003bb7
:02030a00037678
:02030b00003bb5
:02030c00040dde
:02030d00302896
:02030e0011c11b
:02030f002028a4
:0203100011c416
:02031100003baf
:0203120003bd29
:02031300003cac
:020314000c2ead
:0203150006b030
:02031600003baa
:0203170003766b
:02031800003ba8
:02031900040dd1
:02031a00302889
:02031b0011c00f
:02031c00202897
:02031d0011c30a
:02031e00311a92
:02031f000520b7
:0203200011c406
:020321000420b6
:0203220011c107
:020323000620b2
:0203240011cff7
:02032500060bc5
:020326000003d2
:0203270010378d
:020328000007cc
:020329000120b1
:02032a0011c5fb
:02032b0020268a
:02032c00110cb2
:02032d00903707
:02032e000008c5
:02032f00212b80
:02033000520178
:020331000411b5
:02033200903702
:02033300fffccd
:02033400003790
:02033500000abc
:02033600212b79
:02033700231988
:020338000318a8
:020339000318a7
:02033a00312b65
:02033b0052016d
:02033c000411aa
:02033d009037f7
:02033e00fff8c6
:02033f00002696
:02034000003b80
:0203410003bdfa
:02034200003c7d
:020343002f2b5e
:020344003f2b4d
:02034500012d88
:0203460011cbd9
:02034700122280
:02034800220c85
:0203490010376b
:02034a00000aa7
:02034b0021127d
:02034c00103768
:02034d000007a7
:02034e00131b7f
:02034f000303a6
:020350000004a7
:02035100311a5f
:02035200003772
:02035300fff4b5
:02035400122372
:020355000001a5
:02035600221370
:02035700005252
:0203580010375c
:0203590000138f
:02035a0022136c
:02035b00004a56
:02035c00103758
:02035d00000995
:02035e00221368
:02035f00005349
:020360009037d4
:02036100000f8b
:02036200022077
:0203630011cbbc
:0203640020284f
:0203650011ccb9
:02036600122360
:02036700000391
:0203680020284b
:0203690011cbb6
:02036a0000375a
:02036b0000058b
:02036c0002206d
:02036d0011ccb1
:02036e00202845
:02036f0011cbb0
:02037000122356
:02037100000288
:02037200211a4e
:02037300f32570
:02037400f22570
:02037500013a4b
:02037600073945
:02037700039ce5
:02037800b3339d
:02037900030b74
:02037a00002061
:02037b00103739
:02037c00fffc84
:02037d00c42496
:02037e00441326
:02037f0000007c
:02038000103734
:02038100001b5f
:02038200441322
:02038300007cfc
:020384009037b0
:02038500000f67
:02038600001f56
:0203870000056f
:02038800b3338d
:02038900030b64
:02038a00004031
:02038b009037a9
:02038c00fffc74
:02038d00042149
:02038e00002d40
:02038f004a35ed
:02039000003833
:020391000388df
:02039200003732
:02039300ffe584
:020394004a35e8
:02039500b33380
:02039600030b57
:02039700004024
:0203980090379c
:02039900ffdf84
:02039a0000372a
:02039b00ffe27f
:02039c00003c23
:02039d0007391e
:02039e00039cbe
:02039f00003b21
:0203a0000376e2
:0203a100c11b7e
:0203a200102821
:0203a30011be89
:0203a400003b1c
:0203a50003bd96
:0203a600012034
:0203a70011be85
:0203a8001c1a1d
:0203a900c3226d
:0203aa0033130b
:0203ab0000034d
:0203ac00903788
:0203ad00fff25d
:0203ae00003c11
:0203af0007390c
:0203b000039cac
:0203b1000c2e10
:0203b20006de65
:0203b300003b0d
:0203b4000376ce
:0203b500003c0a
:0203b600073905
:0203b700039ca5
:0203b8000c2e09
:0203b90006dc60
:0203ba00003b06
:0203bb000376c7
:0203bc00003c03
:0203bd000739fe
:0203be00039c9e
:0203bf000c2e02
:0203c00006db5a
:0203c100003bff
:0203c2000376c0
:0203c300003cfc
:0203c4000739f7
:0203c500039c97
:0203c6000c2efb
:0203c70006d955
:0203c800003bf8
:0203c9000376b9
:0203ca00003cf5
:0203cb00b1334c
:0203cc00010b23
:0203cd000040ee
:0203ce00903766
:0203cf00fffc31
:0203d000003cef
:0203d1002f2bd0
:0203d200020b1c
:0203d300000f19
:0203d4002213f2
:0203d500000a1c
:0203d600d0371e
:0203d700000321
:0203d80002031e
:0203d90000071b
:0203da0002031c
:0203db000030f0
:0203dc002028d7
:0203dd0011b459
:0203de00f22506
:0203df00021802
:0203e000020b0e
:0203e100000f0b
:0203e2002213e4
:0203e300000a0e
:0203e400d03710
:0203e500000313
:0203e600020310
:0203e70000070d
:0203e80002030e
:0203e9000030e2
:0203ea002028c9
:0203eb0011b54a
:0203ec00003cd3
:0203ed001219e3
:0203ee00010b01
:0203ef0000ff0d
:0203f000010703
:0203f1000030da
:0203f2001113e5
:0203f3000009ff
:0203f400f037e0
:0203f500000501
:0203f600010bf9
:0203f700000ff5
:0203f8000103ff
:0203f9000009f9
:0203fa000218e7
:0203fb000218e6
:0203fc00020bf2
:0203fd0000ffff
:0203fe000207f4
:0203ff000030cc
:020400002213c5
:020401000009f0
:02040200f037d1
:020403000005f2
:02040400020be9
:02040500000fe6
:020406000203ef
:020407000009ea
:020408000217d9
:02040900020be4
:02040a0000f000
:02040b00120cd1
:02040c00003cb2
:02040d00220ebd
:02040e00330eab
:02040f00063ea7
:02041000003baf
:02041100047075
:020412000739a8
:020413000415ce
:020414001a3597
:020415001113c1
:02041600000dd7
:0204170010379c
:020418000021c1
:020419001113bd
:02041a00000ad6
:02041b00103798
:02041c00001dc1
:02041d001113b9
:02041e00002daf
:02041f00903714
:020420000002d8
:02042100863e15
:020422000107d0
:020423000030a7
:0204240030376f
:02042500ffebeb
:020426000215bd
:020427001315ab
:020428000215bb
:020429001315a9
:02042a000215b9
:02042b001315a7
:02042c000215b7
:02042d001315a5
:02042e001113a8
:02042f000009c2
:02043000f037a3
:020431000005c4
:02043200010bbc
:02043300000fb8
:020434000103c2
:020435000009bc
:02043600120ca6
:0204370000378c
:02043800ffd8eb
:02043900063982
:02043a00043f7d
:02043b00220994
:02043c00330982
:02043d000203b8
:02043e000001bb
:02043f00003c7f
:020440000203b5
:02044100003089
:020442002a3559
:02044300022194
:02044400000da9
:020445002a3556
:02044600003c78
:02044700231977
:02044800030ba4
:02044900800031
:02044a00103769
:02044b000007a8
:02044c00220983
:02044d000203a8
:02044e000001ab
:02044f00032187
:02045000002d7d
:020451003a353a
:0204520023196c
:0204530002188d
:0204540002188c
:02045500003b6a
:0204560003d1d0
:02045700012082
:0204580011b5dc
:020459001a3552
:02045a00003b65
:02045b0003cbd1
:02045c0001207d
:02045d0011b4d8
:02045e001a354d
:02045f00321950
:02046000003b5f
:0204610003d1c5
:02046200012077
:0204630011b5d1
:020464001a3547
:02046500003b5a
:0204660003cbc6
:02046700012072
:0204680011b4cd
:020469001a3542
:02046a00003b55
:02046b0003cbc1
:02046c0001216c
:02046d0000206d
:02046e001a353d
:02046f00003c4f
:02047000b133a6
:02047100014147
:02047200008008
:02047300103740
:02047400fffc8b
:02047500a133b1
:02047600010b78
:0204770000ff84
:0204780010284a
:0204790011b8b8
:02047a00003c44
:02047b000c2e45
:02047c0006b0c8
:02047d00003b42
:02047e00037603
:02047f00003b40
:02048000040d69
:02048100202831
:0204820011d097
:02048300003b3c
:0204840003bdb6
:02048500003c39
:020486000c2e3a
:0204870006b0bd
:02048800003b37
:020489000376f8
:02048a00003b35
:02048b00040d5e
:02048c00202826
:02048d0011d18b
:02048e00003b31
:02048f0003bdab
:02049000003c2e
:020491000c2e2f
:0204920006b0b2
:02049300003b2c
:020494000376ed
:02049500003b2a
:02049600040d53
:0204970020281b
:0204980011d27f
:02049900003b26
:02049a0003bda0
:02049b00003c23
:02049c000c2e24
:02049d0006b0a7
:02049e00003b21
:02049f000376e2
:0204a000003b1f
:0204a100040d48
:0204a200202810
:0204a30011d373
:0204a400220e26
:0204a50020280d
:0204a60011d46f
:0204a70020280b
:0204a80011d56c
:0204a900003b16
:0204aa0003bd90
:0204ab00003c13
:0204ac000c2e14
:0204ad0006b097
:0204ae00003b11
:0204af000376d2
:0204b000003b0f
:0204b100040d38
:0204b200202800
:0204b30011d462
:0204b400220e16
:0204b5002028fd
:0204b60011d55e
:0204b700003b08
:0204b80003bd82
:0204b900003c05
:0204ba000c2e06
:0204bb0006b089
:0204bc00003b03
:0204bd000376c4
:0204be00003b01
:0204bf00040d2a
:0204c0002028f2
:0204c10011d553
:0204c200003bfd
:0204c30003bd77
:0204c400003cfa
:0204c5000c2efb
:0204c60006b07e
:0204c700003bf8
:0204c8000376b9
:0204c900003bf6
:0204ca00040d1f
:0204cb00020b22
:0204cc0000032b
:0204cd00021714
:0204ce00021713
:0204cf00021712
:0204d0000132f7
:0204d100000722
:0204d200010b1c
:0204d300cfff59
:0204d400210cf9
:0204d5001034e1
:0204d60000071d
:0204d700003be8
:0204d80003bd62
:0204d900003ce5
:0204da000c2ee6
:0204db0006b069
:0204dc00003be3
:0204dd000376a4
:0204de00003be1
:0204df00040d0a
:0204e000020b0d
:0204e100000316
:0204e2000217ff
:0204e3000217fe
:0204e4000217fd
:0204e5000215fe
:0204e6000215fd
:0204e7000132e0
:0204e80000070b
:0204e900010b05
:0204ea003fffd2
:0204eb00210ce2
:0204ec001034ca
:0204ed00000706
:0204ee00003bd1
:0204ef0003bd4b
:0204f000003cce
:0204f1000132d6
:0204f200000701
:0204f300010bfb
:0204f400fffe09
:0204f500010df7
:0204f600000103
:0204f7001034bf
:0204f8000007fb
:0204f900001fe2
:0204fa00000af6
:0204fb000000ff
:0204fc000000fe
:0204fd000038c5
:0204fe0004fbfd
:0204ff000000fb
:02050000010bed
:02050100fffefb
:020502001034b3
:020503000007ef
:020504000c2ebb
:0205050006c628
:02050600003bb8
:02050700037679
:02050800003bb6
:0205090003c429
:02050a00003cb3
:02050b000c2eb4
:02050c0006b037
:02050d00003bb1
:02050e00037672
:02050f00003baf
:02051000040dd8
:02051100020bdb
:020512000002e5
:020513000132b3
:020514000007de
:02051500010bd8
:02051600fffde7
:02051700210cb5
:0205180010349d
:020519000007d9
:02051a00003ba4
:02051b0003bd1e
:02051c00003ca1
:02051d000c2ea2
:02051e0006b025
:02051f00003b9f
:02052000037660
:02052100003b9d
:02052200040dc6
:0205230020288e
:0205240011cafa
:02052500220ca6
:0205260010378c
:020527000004ce
:0205280000458c
:02052900843f0d
:02052a00003c93
:02052b00004688
:02052c00043f8a
:02052d00003c90
:02052e000c2e91
:02052f0006b014
:02053000003b8e
:0205310003764f
:02053200003b8c
:02053300040db5
:02053400020bb8
:020535000007bd
:02053600272a72
:020537000000c2
:0205380020425f
:02053900003b85
:02053a0003bdff
:02053b00003c82
:02053c00012d8f
:02053d0011c0eb
:02053e00022d8c
:02053f0011c2e7
:02054000042095
:0205410011c1e6
:02054200202671
:02054300001f97
:020544000001b4
:0205450012247e
:02054600222b66
:02054700021898
:02054800021897
:02054900003878
:02054a00054664
:02054b00041199
:02054c009037e6
:02054d00fff6b7
:02054e00002685
:02054f00111b7e
:02055000172a68
:020551000004a4
:02055200211b6b
:02055300172a65
:020554000005a0
:02055500003b69
:0205560003bde3
:02055700003c66
:02055800012d73
:0205590011c0cf
:02055a00022d70
:02055b0011c2cb
:02055c00042079
:02055d0011c1ca
:02055e00102665
:02055f00330e59
:02056000222453
:02056100230c69
:02056200222451
:0205630002177d
:0205640002177c
:02056500230c65
:02056600312b37
:0205670004117d
:020568009037ca
:02056900fff69b
:02056a00002669
:02056b00111b62
:02056c00172a4c
:02056d00000488
:02056e00211b4f
:02056f00172a49
:02057000000584
:02057100003b4d
:0205720003bdc7
:02057300003c4a
:02057400660e11
:0205750045053a
:0205760030371c
:0205770000057d
:02057800531915
:0205790006106a
:02057a00003748
:02057b00fffa85
:02057c00003c41
:02057d00551314
:02057e00000279
:02057f009037b3
:02058000001267
:020581006919f6
:02058200090b63
:0205830000ff77
:0205840010372e
:0205850000096b
:02058600090b5f
:0205870000036f
:020588009037aa
:0205890000056b
:02058a00082146
:02058b00001d51
:02058c00003736
:02058d00001b51
:02058e00082142
:02058f00001c4e
:02059000003732
:02059100001751
:02059200054121
:0205930000085e
:0205940090379e
:02059500000d57
:0205960005411d
:02059700000161
:0205980010371a
:0205990000055b
:02059a00082136
:02059b00001f3f
:02059c00003726
:02059d00000b51
:02059e00082132
:02059f00001e3c
:0205a000003722
:0205a100000751
:0205a200054111
:0205a300000155
:0205a40010370e
:0205a500fff560
:0205a60000371c
:0205a700fff75c
:0205a800003c15
:0205a900883f89
:0205aa00083f08
:0205ab00003d11
:0205ac00893f85
:0205ad00093f04
:0205ae00003d0e
:0205af00012029
:0205b00011c870
:0205b100110c2b
:0205b200103700
:0205b300000640
:0205b400011133
:0205b50010280c
:0205b60011c86a
:0205b70000370b
:0205b80000023f
:0205b9008e3e74
:0205ba00003d02
:0205bb0002201c
:0205bc0011d458
:0205bd00032019
:0205be0011d357
:0205bf00042016
:0205c00011d256
:0205c1004719d8
:0205c200052012
:0205c30011d154
:0205c40006200f
:0205c50011d053
:0205c600012012
:0205c70011d54c
:0205c800011020
:0205c90011130c
:0205ca00003cf3
:0205cb00d03727
:0205cc000038f5
:0205cd00110e0d
:0205ce00021019
:0205cf002213f5
:0205d000003ced
:0205d100d03721
:0205d2000030f7
:0205d300220ef6
:0205d4008a3e5d
:0205d500031011
:0205d6003313dd
:0205d70000180a
:0205d800d0371a
:0205d9000027f9
:0205da00330ede
:0205db00040b0f
:0205dc0000ff1e
:0205dd00070b0a
:0205de00ff001c
:0205df000718fb
:0205e0000718fa
:0205e100071001
:0205e20077138d
:0205e30000070f
:0205e400d0370e
:0205e500000212
:0205e600770e8e
:0205e7000717f4
:0205e8000717f3
:0205e9000410fc
:0205ea00003bd4
:0205eb00057d8c
:0205ec00841277
:0205ed00e037f5
:0205ee00000ffc
:0205ef000421e5
:0205f000000108
:0205f1000510f3
:0205f20055139f
:0205f300000cfa
:0205f400e037ee
:0205f5000006fe
:0205f6000521dd
:0205f700000101
:0205f8000610eb
:0205f900602878
:0205fa0011d01e
:0205fb00502886
:0205fc0011d11b
:0205fd00740c7c
:0205fe00402893
:0205ff0011d217
:020600003028a0
:0206010011d313
:020602002028ae
:0206030011d410
:020604001028bc
:0206050011d50d
:02060600003db5
:02060700003db4
:02060800003bb5
:02060900062bbe
:02060a00013fae
:02060b00023fac
:02060c00033faa
:02060d000120ca
:02060e0011b326
:02060f000110d8
:020610001028b0
:0206110011b323
:020612001113c2
:020613000001e4
:0206140090371d
:020615000004df
:02061600813f22
:020617000037aa
:020618000010d0
:020619001113bb
:02061a000002dc
:02061b00903716
:02061c000004d8
:02061d00823f1a
:02061e000037a3
:02061f000009d0
:020620001113b4
:020621000003d4
:0206220090370f
:020623000005d0
:02062400833f12
:02062500110eb4
:0206260010289a
:0206270011b30d
:020628000d2e95
:0206290012209d
:02062a00003c92
:02062b000120ac
:02062c0011b209
:02062d00011fab
:02062e00001fab
:02062f001d2b81
:020630000110b7
:0206310001388e
:02063200062f91
:0206330010288d
:0206340011b201
:02063500003c87
:02063600833e01
:02063700003c85
:0206380000536d
:02063900005768
:02063a00003a84
:02063b0000308d
:02063c00003488
:02063d0000308b
:02063e00003585
:02063f00003287
:02064000003286
:02064100002d8a
:02064200003086
:02064300003184
:02064400002094
:02064500004d66
:02064600006151
:0206470000733e
:0206480000743c
:0206490000654a
:02064a0000723c
:02064b00005459
:02064c00006547
:02064d00006d3e
:02064e0000703a
:02064f00006c3d
:02065000006147
:02065100007433
:02065200006541
:0206530000465f
:0206540000752f
:02065500006c37
:02065600006c36
:020657000000a1
:02065800002080
:02065900004956
:02065a00006e30
:02065b00007429
:02065c00006537
:02065d00007229
:02065e00006e2c
:02065f00006138
:02066000006c2c
:02066100002077
:02066200004d49
:02066300006530
:02066400006d27
:02066500006f24
:02066600007220
:02066700007918
:02066800002070
:0206690000414e
:02066a0000632b
:02066b0000632a
:02066c00006527
:02066d00007318
:02066e00007317
:02066f00000089
:02067000002068
:02067100004542
:0206720000780e
:02067300007411
:0206740000651f
:02067500007211
:02067600006e14
:02067700006120
:02067800006c14
:0206790000205f
:02067a00004d31
:02067b00006518
:02067c00006d0f
:02067d00006f0c
:02067e00007208
:02067f00007900
:02068000002058
:02068100004136
:02068200006313
:02068300006312
:0206840000650f
:02068500007300
:020686000073ff
:02068700000071
:02068800002050
:0206890000422d
:02068a000079f5
:02068b000074f9
:02068c00006507
:02068d0000204b
:02068e00004d1d
:02068f00006504
:02069000006dfb
:02069100006ff8
:020692000072f4
:020693000079ec
:02069400002044
:02069500004122
:020696000063ff
:020697000063fe
:020698000065fb
:020699000073ec
:02069a000073eb
:02069b0000005d
:02069c0000203c
:02069d00005704
:02069e00006feb
:02069f000072e7
:0206a0000064f4
:0206a100002037
:0206a200004d09
:0206a3000065f0
:0206a400006de7
:0206a500006fe4
:0206a6000072e0
:0206a7000079d8
:0206a800002030
:0206a90000410e
:0206aa000063eb
:0206ab000063ea
:0206ac000065e7
:0206ad000073d8
:0206ae000073d7
:0206af00000049
:0206b000002028
:0206b100004502
:0206b200006ed8
:0206b3000074d1
:0206b4000065df
:0206b5000072d1
:0206b600002022
:0206b7000076cb
:0206b8000061df
:0206b900006cd3
:0206ba000075c9
:0206bb000065d8
:0206bc0000201c
:0206bd00005be0
:0206be000052e8
:0206bf000045f4
:0206c0000054e4
:0206c100005dda
:0206c200002016
:0206c300003df8
:0206c400002014
:0206c500000033
:0206c600002012
:0206c7000054dd
:0206c8000061cf
:0206c9000072bd
:0206ca000067c7
:0206cb000065c8
:0206cc000074b8
:0206cd0000200b
:0206ce000052d8
:0206cf000065c4
:0206d0000073b5
:0206d1000065c2
:0206d2000074b2
:0206d300002005
:0206d4000064c0
:0206d500006fb4
:0206d600006eb4
:0206d7000065bc
:0206d800000020
:0206d900000d12
:0206da00000a14
:0206db00000d10
:0206dc00000a12
:0206dd0000001b
:0206de00000d0d
:0206df00000019
:0206e000000117
:0206e100000215
:0206e200000412
:0206e30000080d
:0206e400001004
:0206e5000020f3
:0206e6000040d2
:0206e700008091
:0206e80001000f
:0206e90002000d
:0206ea0004000a
:0206eb00080005
:0206ec001000fc
:0206ed002000eb
:0206ee004000ca
:0206ef00800089
:0206f000001bed
:0206f100005bac
:0206f2000032d4
:0206f300004abb
:0206f400000004
:0206f500000003
:0206f600001be7
:0206f700005ba6
:0206f8000048b8
:0206f9000000ff
:0206fa000000fe
:0206fb00006499
:0206fc00004ab2
:0206fd0000de1d
:0206fe00072bc8
:0206ff00007386
:02070000004aad
:0207010000d81e
:0207020007935b
:02070300006193
:02070400004aa9
:0207050000d220
:0207060007d713
:0207070000767a
:02070800004aa5
:0207090000915d
:02070a0006fbec
:02070b00004ca0
:02070c00004aa1
:02070d003f00ab
:02070e0006fbe8
:02070f000045a3
:02071000004a9d
:0207110000875f
:0207120006fbe4
:0207130000657f
:02071400004a99
:02071500008c56
:0207160006fbe0
:0207170000439d
:02071800004a95
:0207190000b42a
:02071a0006fbdc
:02071b00006379
:02071c00004a91
:02071d0000b624
:02071e0006fbd8
:02071f0000498f
:02072000004a8d
:02072100051db4
:0207220006fbd4
:02072300006b69
:02072400004a89
:02072500009f33
:0207260006fbd0
:020727000000d0
:02072800004a85
:0207290000c707
:02072a0006fbcc
:02072b0000418b
:02072c00004a81
:02072d000105c4
:02072e00072b97
:02072f00004286
:02073000004a7d
:02073100011fa6
:02073200072b93
:02073300005074
:02073400004a79
:02073500052e8f
:02073600072b8f
:0207370000645c
:02073800004a75
:0207390002625a
:02073a00072b8b
:02073b00006e4e
:02073c00004a71
:02073d00025b5d
:02073e00072b87
:02073f00006652
:02074000004a6d
:0207410003149f
:02074200072b83
:02074300006c48
:02074400004a69
:020745000307a8
:02074600072b7f
:02074700006d43
:0207480000535c
:0207490001426b
:02074a00081392
:02074b00007735
:02074c00005358
:02074d00014267
:02074e0008138e
:02074f00007335
:02075000005354
:02075100014263
:0207520008138a
:02075300006341
:02075400005350
:0207550001425f
:02075600081386
:0207570000742c
:0207580000534c
:0207590001425b
:02075a00081382
:02075b00006933
:02075c00005348
:02075d00014257
:02075e0008137e
:02075f00006137
:02076000005344
:02076100014253
:0207620008137a
:02076300006f25
:02076400005340
:0207650001424f
:02076600081376
:0207670000652b
:0207680000533c
:0207690001424b
:02076a00081372
:02076b0000622a
:02076c00004a41
:02076d00013257
:02076e00072b57
:02076f00007216
:02077000004a3d
:0207710000f195
:02077200072b53
:0207730000760e
:02077400004a39
:0207750002afd1
:02077600072b4f
:02077700006818
:02077800004a35
:0207790000e599
:02077a00072b4b
:02077b00007804
:02077c00004a31
:02077d0000c7b3
:02077e0006fb78
:02077f00002058
:02078000004a2d
:0207810000de98
:02078200072b43
:02078300000074
:02078400004a29
:02078500014130
:02078600072b3f
:02078700006808
:02078800004a25
:0207890000e589
:02078a000787df
:02078b000078f4
:02078c00004a21
:02078d0000c7a3
:02078e0006fb68
:02078f00000068
:02079000004a1d
:0207910000e581
:020792000787d7
:020793000073f1
:02079400004a19
:0207950004c599
:020796000793c7
:020797000074ec
:02079800004a15
:0207990004da80
:02079a000793c3
:02079b000062fa
:02079c00004a11
:02079d00013227
:02079e000793bf
:02079f000072e6
:0207a000004a0d
:0207a10000f165
:0207a2000793bb
:0207a3000077dd
:0207a400005300
:0207a50001420f
:0207a600081336
:0207a7000052fe
:0207a800004a05
:0207a90004f159
:0207aa000793b3
:0207ab000057f5
:0207ac00004a01
:0207ad00050b3a
:0207ae000793af
:0207af000059ef
:0207b000004afd
:0207b100047bc7
:0207b2000793ab
:0207b300004df7
:0207b400004af9
:0207b5000486b8
:0207b6000793a7
:0207b7000044fc
:0207b800004af5
:0207b9000491a9
:0207ba000793a3
:0207bb000048f4
:0207bc00004af1
:0207bd00049c9a
:0207be0007939f
:0207bf000055e3
:0207c000004aed
:0207c10004ac86
:0207c20007939b
:0207c3000053e1
:0207c400004ae9
:0207c50004ba74
:0207c600079397
:0207c700006bc5
:0207c800004ae5
:0207c900009f8f
:0207ca00079393
:0207cb000076b6
:0207cc00004ae1
:0207cd0002af79
:0207ce0007938f
:0207cf000078b0
:0207d000004add
:0207d10000c75f
:0207d20006fb24
:0207d300000024
:0207d400004ad9
:0207d50000d84a
:0207d600079387
:0207d7000061bf
:0207d800004ad5
:0207d9000636e2
:0207da0007d73f
:0207db000031eb
:0207dc00004ad1
:0207dd0002c94f
:0207de0007d73b
:0207df000032e6
:0207e000004acd
:0207e10002da3a
:0207e20007d737
:0207e3000064b0
:0207e400004ac9
:0207e50002ec24
:0207e60007d733
:0207e7000053bd
:0207e800004ac5
:0207e900053ccd
:0207ea0007d72f
:0207eb000052ba
:0207ec00004ac1
:0207ed000558ad
:0207ee0007d72b
:0207ef00006b9d
:0207f000004abd
:0207f100009f67
:0207f20007d727
:0207f300007292
:0207f400004ab9
:0207f50000f111
:0207f60007d723
:0207f70000768a
:0207f800004ab5
:0207f90002af4d
:0207fa0007d71f
:0207fb00006894
:0207fc00004ab1
:0207fd0000eb0f
:0207fe0007d71b
:0207ff00007880
:02080000004aac
:0208010000c72e
:0208020006fbf3
:020803000000f3
:02080400004aa8
:0208050000d21f
:0208060007d712
:02080700000de2
:0208080000529c
:02080900025794
:02080a0006fbeb
:02080b0000717a
:02080c00005298
:02080d00025790
:02080e0006fbe7
:02080f000000e7
:02081000004a9c
:0208110001a53f
:020812000807d5
:02081300002cb7
:02081400004a98
:02081500018957
:02081600082fa9
:020817000020bf
:02081800004a94
:02081900018953
:02081a00082fa5
:02081b00002dae
:02081c00004a90
:02081d0001894f
:02081e00083b95
:02081f00006e69
:02082000004a8c
:0208210001894b
:02082200083b91
:02082300000dc6
:02082400005280
:0208250001656b
:0208260006fbcf
:0208270000715e
:0208280000527c
:02082900025774
:02082a0006fbcb
:02082b000000cb
:02082c00004a80
:02082d00015078
:02082e000813ad
:02082f00000dba
:02083000005274
:0208310001a81c
:0208320006fbc3
:02083300007152
:02083400005270
:02083500025768
:0208360006fbbf
:020837000000bf
:02083800004a74
:0208390001a517
:02083a00082f85
:02083b00000dae
:02083c00005268
:02083d0001ad0b
:02083e0006fbb7
:02083f00007146
:02084000005264
:0208410002575c
:0208420006fbb3
:020843000000b3
:02084400004a68
:0208450001a50b
:02084600083b6d
:02084700007c33
:02084800004d61
:0208490000614c
:02084a00006943
:02084b00006e3d
:02084c0000208a
:02084d00004d5c
:02084e00006543
:02084f00006e39
:02085000007531
:02085100007c29
:020852000000a4
:02085300002083
:02085400006141
:02085500002081
:02085600003d63
:0208570000207f
:0208580000613d
:0208590000702d
:02085a0000702c
:02085b00006c2f
:02085c00006931
:02085d00006336
:02085e00006137
:02085f00007423
:0208600000692d
:02086100006f26
:02086200006e26
:02086300000093
:02086400002072
:0208650000731e
:02086600002070
:02086700003d52
:0208680000206e
:0208690000731a
:02086a00007913
:02086b00007318
:02086c00007416
:02086d00006524
:02086e00006d1b
:02086f00002067
:02087000007313
:02087100006520
:02087200007410
:0208730000750e
:02087400007012
:02087500000081
:02087600002060
:0208770000641b
:0208780000205e
:02087900003d40
:02087a0000205c
:02087b00006417
:02087c00006515
:02087d00006217
:02087e00007503
:02087f00006710
:02088000000076
:02088100002055
:020882000076fe
:02088300002053
:02088400003d35
:02088500002051
:020886000076fa
:0208870000650a
:020888000072fc
:020889000073fa
:02088a00006903
:02088b00006ffc
:02088c00006efc
:02088d00000069
:02088e00002048
:02088f00004522
:02089000002046
:02089100003d28
:02089200002044
:0208930000451e
:020894000063ff
:020895000068f9
:02089600006ff1
:0208970000203f
:02089800004f0f
:02089900004e0f
:02089a0000005c
:02089b0000203b
:02089c000065f5
:02089d00002039
:02089e00003d1b
:02089f00002037
:0208a0000065f1
:0208a1000063f2
:0208a2000068ec
:0208a300006fe4
:0208a400002032
:0208a500004f02
:0208a60000460a
:0208a700004609
:0208a80000004e
:0208a90000202d
:0208aa00004309
:0208ab0000202b
:0208ac00003d0d
:0208ad00002029
:0208ae00004305
:0208af00006cdb
:0208b0000065e1
:0208b1000061e4
:0208b2000072d2
:0208b300002023
:0208b4000073cf
:0208b5000063de
:0208b6000072ce
:0208b7000065da
:0208b8000065d9
:0208b900006ecf
:0208ba00002f0d
:0208bb000048f3
:0208bc00006fcb
:0208bd00006dcc
:0208be000065d3
:0208bf00002017
:0208c000004fe7
:0208c100004ee7
:0208c200000034
:0208c300002013
:0208c4000063cf
:0208c500002011
:0208c600003df3
:0208c70000200f
:0208c8000043eb
:0208c900006cc1
:0208ca000065c7
:0208cb000061ca
:0208cc000072b8
:0208cd00002009
:0208ce000073b5
:0208cf000063c4
:0208d0000072b4
:0208d1000065c0
:0208d2000065bf
:0208d300006eb5
:0208d400002ff3
:0208d5000048d9
:0208d600006fb1
:0208d700006db2
:0208d8000065b9
:0208d9000020fd
:0208da00004fcd
:0208db000046d5
:0208dc000046d4
:0208dd00000019
:0208de000020f8
:0208df000049ce
:0208e0000020f6
:0208e100003dd8
:0208e2000020f4
:0208e3000049ca
:0208e4000052c0
:0208e5000051c0
:0208e6000020f0
:0208e700006da2
:0208e8000061ad
:0208e90000739a
:0208ea00006ba1
:0208eb0000000b
:0208ec000020ea
:0208ed00006b9e
:0208ee000020e8
:0208ef00003dca
:0208f0000020e6
:0208f1000064a1
:0208f20000699b
:0208f300007390
:0208f400007092
:0208f500006c95
:0208f60000619f
:0208f700007986
:0208f8000020de
:0208f90000639a
:0208fa00006c90
:0208fb00006f8c
:0208fc00006397
:0208fd00006b8e
:0208fe000020d8
:0208ff000000f7
:020900000020d5
:02090100004ca8
:020902000020d3
:02090300003db5
:020904000020d1
:02090500004ca4
:02090600006f80
:0209070000618d
:02090800006489
:020909000020cc
:02090a0000509b
:02090b00007278
:02090c00006f7a
:02090d00006781
:02090e00007275
:02090f00006185
:02091000006d78
:020911000020c4
:02091200002ab9
:02091300002eb4
:02091400006d74
:0209150000657b
:02091600006d72
:020917000000de
:02091800007c61
:02091900007c60
:02091a00007c5f
:02091b000000da
:02091c000003d6
:02091d00007c5c
:02091e00004d8a
:02091f00006571
:02092000006d68
:02092100006f65
:02092200007261
:02092300007959
:02092400002fa2
:0209250000527e
:0209260000656a
:02092700006767
:02092800006964
:02092900007359
:02092a00007457
:02092b00006565
:02092c00007257
:02092d00002f99
:02092e0000497e
:02092f00004f77
:020930000020a5
:02093100004d77
:0209320000655e
:02093300006e54
:0209340000754c
:02093500007c44
:020936000000bf
:0209370000209e
:0209380000417c
:0209390000209c
:02093a00003d7e
:02093b0000209a
:02093c00006d4c
:02093d00006553
:02093e00006d4a
:02093f00006f47
:02094000007243
:0209410000793b
:02094200002093
:02094300004171
:0209440000634e
:0209450000634d
:0209460000654a
:0209470000733b
:0209480000733a
:0209490000208c
:02094a00006d3e
:02094b00006f3b
:02094c00006445
:02094d00006543
:02094e000000a7
:02094f00002086
:02095000004263
:02095100002084
:02095200003d66
:02095300002082
:02095400006d34
:0209550000653b
:02095600006d32
:02095700006f2f
:0209580000722b
:02095900007923
:02095a0000207b
:02095b00004258
:02095c00007920
:02095d00007424
:02095e00006532
:02095f00002076
:02096000006d28
:02096100006f25
:0209620000642f
:0209630000652d
:02096400000091
:02096500002070
:0209660000503f
:0209670000206e
:02096800003d50
:0209690000206c
:02096a00006526
:02096b00007812
:02096c00007415
:02096d00006523
:02096e00007215
:02096f00006e18
:02097000006124
:02097100006c18
:02097200002063
:02097300006d15
:0209740000651c
:02097500006d13
:02097600006f10
:0209770000720c
:02097800007904
:0209790000205c
:02097a0000502b
:02097b00006119
:02097c00006712
:02097d00006513
:02097e00000077
:02097f00002056
:02098000006d08
:02098100002054
:02098200003d36
:02098300002052
:02098400004d24
:0209850000650b
:02098600006d02
:02098700006fff
:020988000072fb
:020989000079f3
:02098a0000204b
:02098b000077f3
:02098c000072f7
:02098d000069ff
:02098e000074f3
:02098f00006501
:02099000002f36
:020991000072f2
:020992000065fe
:02099300006101
:020994000064fd
:02099500000060
:0209960000203f
:020997000064fa
:0209980000203d
:02099900003d1f
:02099a0000203b
:02099b00004d0d
:02099c000065f4
:02099d00006deb
:02099e00006fe8
:02099f000072e4
:0209a0000079dc
:0209a100002034
:0209a2000064ef
:0209a3000075dd
:0209a400006de4
:0209a5000070e0
:0209a60000004f
:0209a70000202e
:0209a800006edf
:0209a90000202c
:0209aa00003d0e
:0209ab0000202a
:0209ac00004efb
:0209ad000065e3
:0209ae000078cf
:0209af000074d2
:0209b000002025
:0209b1000064e0
:0209b2000075ce
:0209b300006dd5
:0209b4000070d1
:0209b500000040
:0209b60000201f
:0209b7000066d8
:0209b80000201d
:0209b900003dff
:0209ba0000201b
:0209bb000066d4
:0209bc000069d0
:0209bd00006ccc
:0209be00006ccb
:0209bf00002016
:0209c000006dc8
:0209c1000065cf
:0209c200006dc6
:0209c300006fc3
:0209c4000072bf
:0209c5000079b7
:0209c60000200f
:0209c7000061cd
:0209c8000064c9
:0209c9000064c8
:0209ca000072b9
:0209cb000065c5
:0209cc000073b6
:0209cd000073b5
:0209ce00002ff8
:0209cf000076b0
:0209d0000061c4
:0209d100006cb8
:0209d2000075ae
:0209d3000065bd
:0209d400002001
:0209d5000028f8
:0209d6000041de
:0209d7000041dd
:0209d8000041dc
:0209d9000041db
:0209da00002cef
:0209db000076a4
:0209dc000076a3
:0209dd000076a2
:0209de000076a1
:0209df000029ed
:0209e000000015
:0209e1000020f4
:0209e200006ca7
:0209e3000020f2
:0209e400003dd4
:0209e5000020f0
:0209e60000739c
:0209e7000065a9
:0209e800007499
:0209e9000020ec
:0209ea00006c9f
:0209eb000065a5
:0209ec00006e9b
:0209ed000067a1
:0209ee00007493
:0209ef0000689e
:0209f000002fd6
:0209f10000699b
:0209f200006e95
:0209f30000639f
:0209f40000728f
:0209f50000659b
:0209f600006d92
:0209f700006599
:0209f800006e8f
:0209f900007488
:0209fa000020db
:0209fb000028d2
:0209fc00004cad
:0209fd00004cac
:0209fe00004cab
:0209ff00004caa
:020a0000002cc8
:020a010000698a
:020a0200006989
:020a0300006988
:020a0400006987
:020a05000029c6
:020a06000000ee
:020a07000000ed
:020a08000020cc
:020a0900007774
:020a0a000020ca
:020a0b00003dac
:020a0c000020c8
:020a0d00005790
:020a0e00007274
:020a0f0000697c
:020a1000007470
:020a110000657e
:020a1200002fb3
:020a130000726f
:020a140000657b
:020a150000617e
:020a160000647a
:020a17000020bd
:020a180000706c
:020a1900006f6c
:020a1a00007268
:020a1b00007465
:020a1c00002fa9
:020a1d00007265
:020a1e00006571
:020a1f0000676e
:020a200000696b
:020a2100007360
:020a220000745e
:020a230000656c
:020a240000725e
:020a25000000cf
:020a26000020ae
:020a270000735a
:020a28000020ac
:020a2900003d8e
:020a2a000020aa
:020a2b00005376
:020a2c00006563
:020a2d00007453
:020a2e000020a6
:020a2f00007253
:020a300000655f
:020a310000675c
:020a32000020a2
:020a330000625f
:020a3400006957
:020a350000744b
:020a36000000be
:020a370000209d
:020a3800006359
:020a390000209b
:020a3a00003d7d
:020a3b00002099
:020a3c00004375
:020a3d00006c4b
:020a3e00006551
:020a3f00006154
:020a4000007242
:020a4100002093
:020a4200007240
:020a430000654c
:020a4400006749
:020a450000208f
:020a460000624c
:020a4700006944
:020a4800007438
:020a49000000ab
:020a4a0000208a
:020a4b00007435
:020a4c00002088
:020a4d00003d6a
:020a4e00002086
:020a4f00005451
:020a5000006f35
:020a510000673c
:020a520000673b
:020a5300006c35
:020a540000653b
:020a550000207f
:020a560000722c
:020a5700006538
:020a5800006735
:020a590000207b
:020a5a00006238
:020a5b00006930
:020a5c00007424
:020a5d00000097
:020a5e00002076
:020a5f0000692c
:020a6000002074
:020a6100003d56
:020a6200002072
:020a6300005041
:020a640000751b
:020a6500006c23
:020a660000731b
:020a6700006528
:020a680000206c
:020a6900007219
:020a6a00006525
:020a6b00006722
:020a6c00002068
:020a6d00006225
:020a6e0000691d
:020a6f00007411
:020a7000000084
:020a7100002063
:020a7200006121
:020a7300002061
:020a7400003d43
:020a750000205f
:020a760000611d
:020a7700006e0f
:020a7800006418
:020a790000007b
:020a7a0000205a
:020a7b00006f0a
:020a7c00002058
:020a7d00003d3a
:020a7e00002056
:020a7f00006f06
:020a8000007202
:020a8100000073
:020a8200002052
:020a830000650c
:020a8400002050
:020a8500003d32
:020a860000204e
:020a87000078f5
:020a8800006ffd
:020a89000072f9
:020a8a0000006a
:020a8b00000069
:020a8c00002048
:020a8d00006205
:020a8e00002046
:020a8f00003d28
:020a9000002044
:020a91000073f0
:020a92000065fd
:020a93000074ed
:020a9400002040
:020a950000421d
:020a96000061fd
:020a97000073ea
:020a98000065f7
:020a990000203b
:020a9a00004911
:020a9b00002f2a
:020a9c00004f09
:020a9d00002f28
:020a9e00005204
:020a9f000065f0
:020aa0000067ed
:020aa1000069ea
:020aa2000073df
:020aa3000074dd
:020aa4000065eb
:020aa5000072dd
:020aa6000073db
:020aa70000202d
:020aa8000061eb
:020aa9000064e7
:020aaa000064e6
:020aab000072d7
:020aac000065e3
:020aad000073d4
:020aae000073d3
:020aaf00000045
:020ab000002024
:020ab1000072d1
:020ab200002022
:020ab300003d04
:020ab400002020
:020ab5000052ed
:020ab6000065d9
:020ab7000061dc
:020ab8000064d8
:020ab90000201b
:020aba000061d9
:020abb00006ccd
:020abc00006ccc
:020abd00002017
:020abe000049ed
:020abf00006ec7
:020ac0000070c4
:020ac1000075be
:020ac2000074be
:020ac300002011
:020ac4000070c0
:020ac500006fc0
:020ac6000072bc
:020ac7000074b9
:020ac8000073b9
:020ac900002ffc
:020aca000072b8
:020acb000065c4
:020acc000067c1
:020acd000069be
:020ace000073b3
:020acf000074b1
:020ad0000065bf
:020ad1000072b1
:020ad2000073af
:020ad300000021
:020ad400002000
:020ad5000076a9
:020ad6000020fe
:020ad700003de0
:020ad8000020fc
:020ad9000064b7
:020ada000069b1
:020adb000073a6
:020adc000070a8
:020add00006cab
:020ade000061b5
:020adf0000799c
:020ae0000020f4
:020ae10000769d
:020ae2000061b1
:020ae30000729f
:020ae4000069a7
:020ae5000061ae
:020ae6000062ac
:020ae700006ca1
:020ae8000065a7
:020ae900007398
:020aea0000000a
:020aeb00000009
:020aec000020e8
:020aed0000689f
:020aee000020e6
:020aef00003dc8
:020af0000020e4
:020af1000048bb
:020af2000045bd
:020af300004cb5
:020af4000050b0
:020af5000000ff
:020af6000020de
:020af700007885
:020af8000020dc
:020af900003dbe
:020afa000020da
:020afb00006594
:020afc00007880
:020afd0000698e
:020afe00007482
:020aff000000f5
:020b0000007c77
:020b0100007c76
:020b0200007c75
:020b0300007c74
:020b04000000ef
:020b05000003eb
:020b0600007c71
:020b0700005399
:020b0800007972
:020b0900007377
:020b0a00007475
:020b0b00006583
:020b0c00006d7a
:020b0d000020c6
:020b0e00005392
:020b0f0000657f
:020b100000746f
:020b110000756d
:020b1200007071
:020b1300007c64
:020b14000000df
:020b15000020be
:020b1600007469
:020b17000020bc
:020b1800003d9e
:020b19000020ba
:020b1a00007465
:020b1b00007266
:020b1c0000696e
:020b1d0000676f
:020b1e0000676e
:020b1f0000656f
:020b2000007261
:020b21000020b2
:020b220000735e
:020b2300006f61
:020b240000755a
:020b250000725c
:020b260000636a
:020b2700006567
:020b28000020ab
:020b29000028a2
:020b2a000020a9
:020b2b00003098
:020b2c000020a7
:020b2d00007452
:020b2e00006f56
:020b2f000020a4
:020b3000003390
:020b3100002999
:020b32000000c1
:020b33000020a0
:020b340000734c
:020b350000209e
:020b3600003d80
:020b370000209c
:020b3800007348
:020b3900006357
:020b3a00006f4a
:020b3b00007048
:020b3c00006552
:020b3d00002096
:020b3e00005362
:020b3f00006f45
:020b400000753e
:020b4100007240
:020b420000634e
:020b430000654b
:020b440000208f
:020b4500002886
:020b460000208d
:020b470000307c
:020b480000208b
:020b4900007436
:020b4a00006f3a
:020b4b00002088
:020b4c00003374
:020b4d0000297d
:020b4e000000a5
:020b4f000000a4
:020b5000002083
:020b5100006240
:020b5200002081
:020b5300003d63
:020b540000207f
:020b550000732b
:020b5600006538
:020b5700007428
:020b580000207b
:020b5900004258
:020b5a00006138
:020b5b00007325
:020b5c00006532
:020b5d00002076
:020b5e00007223
:020b5f0000652f
:020b600000672c
:020b6100002072
:020b6200006130
:020b630000642c
:020b640000642b
:020b650000721c
:020b6600006528
:020b6700007319
:020b6800007318
:020b690000008a
:020b6a00002069
:020b6b00007216
:020b6c00002067
:020b6d00003d49
:020b6e00002065
:020b6f00005232
:020b700000651e
:020b7100006121
:020b720000641d
:020b7300002060
:020b740000611e
:020b7500006c12
:020b7600006c11
:020b770000205c
:020b7800007209
:020b7900006515
:020b7a00006712
:020b7b0000690f
:020b7c00007304
:020b7d00007402
:020b7e00006510
:020b7f00007202
:020b8000007300
:020b8100000072
:020b8200002051
:020b83000077f9
:020b840000204f
:020b8500003d31
:020b860000204d
:020b8700005715
:020b88000072f9
:020b8900006901
:020b8a000074f5
:020b8b00006503
:020b8c00002f38
:020b8d000072f4
:020b8e00006500
:020b8f00006103
:020b90000064ff
:020b9100002042
:020b92000070f1
:020b9300006ff1
:020b94000072ed
:020b95000074ea
:020b9600002f2e
:020b97000072ea
:020b98000065f6
:020b99000067f3
:020b9a000069f0
:020b9b000073e5
:020b9c000074e3
:020b9d000065f1
:020b9e000072e3
:020b9f00000054
:020ba000000053
:020ba100002032
:020ba2000059f8
:020ba300002030
:020ba400003d12
:020ba50000202e
:020ba6000059f4
:020ba7000065e7
:020ba8000061ea
:020ba9000072d8
:020baa00000049
:020bab00002028
:020bac00004dfa
:020bad00002026
:020bae00003d08
:020baf00002024
:020bb000004df6
:020bb100006fd3
:020bb200006ed3
:020bb3000074cc
:020bb4000068d7
:020bb50000003e
:020bb60000201d
:020bb7000044f8
:020bb80000201b
:020bb900003dfd
:020bba00002019
:020bbb000064d4
:020bbc000061d6
:020bbd000079bd
:020bbe00002f06
:020bbf000044f0
:020bc0000041f2
:020bc1000054de
:020bc2000045ec
:020bc300000030
:020bc40000200f
:020bc5000048e6
:020bc60000200d
:020bc700003def
:020bc80000200b
:020bc9000048e2
:020bca00006fba
:020bcb000075b3
:020bcc000072b5
:020bcd00000026
:020bce00002005
:020bcf000055cf
:020bd000002003
:020bd100003de5
:020bd200002001
:020bd300006db3
:020bd4000069b6
:020bd500006eb0
:020bd6000055c8
:020bd7000074a8
:020bd8000065b6
:020bd90000001a
:020bda000020f9
:020bdb000053c5
:020bdc000020f7
:020bdd00003dd9
:020bde000020f5
:020bdf000053c1
:020be0000065ae
:020be1000063af
:020be200000011
:020be3000020f0
:020be400006ba4
:020be5000020ee
:020be600003dd0
:020be7000020ec
:020be8000064a7
:020be9000069a1
:020bea00007396
:020beb00007098
:020bec00006c9b
:020bed000061a5
:020bee0000798c
:020bef000020e4
:020bf0000063a0
:020bf100006c96
:020bf200006f92
:020bf30000639d
:020bf400006b94
:020bf5000020de
:020bf6000000fd
:020bf7000000fc
:020bf8000020db
:020bf9000052a8
:020bfa000020d9
:020bfb00003dbb
:020bfc000020d7
:020bfd00007482
:020bfe00006194
:020bff00007282
:020c000000678b
:020c010000658c
:020c020000747c
:020c03000020cf
:020c040000529c
:020c0500006588
:020c0600007379
:020c0700006586
:020c0800007476
:020c09000000e9
:020c0a000020c8
:020c0b00005790
:020c0c000020c6
:020c0d00003da8
:020c0e000020c4
:020c0f0000578c
:020c1000007270
:020c1100006978
:020c120000746c
:020c130000657a
:020c14000020be
:020c150000706d
:020c160000726a
:020c1700006f6c
:020c1800007466
:020c1900006574
:020c1a00006375
:020c1b00007463
:020c1c000020b6
:020c1d000028ad
:020c1e000032a2
:020c1f000020b3
:020c2000006f63
:020c210000725f
:020c22000020b0
:020c230000309f
:020c24000029a5
:020c25000000cd
:020c26000020ac
:020c2700007655
:020c28000020aa
:020c2900003d8c
:020c2a000020a8
:020c2b00006463
:020c2c0000695d
:020c2d00007352
:020c2e00007054
:020c2f00006c57
:020c3000006161
:020c3100007948
:020c32000020a0
:020c3300007649
:020c340000615d
:020c350000724b
:020c3600006953
:020c370000615a
:020c3800006258
:020c3900006c4d
:020c3a00006553
:020c3b00007344
:020c3c000000b6
:020c3d00002095
:020c3e0000783c
:020c3f00002093
:020c4000003d75
:020c4100002091
:020c420000654b
:020c4300007837
:020c4400006945
:020c4500007439
:020c46000000ac
:020c4700007c2f
:020c4800007c2e
:020c4900007c2d
:020c4a000000a8
:020c4b000003a4
:020c4c00007c2a
:020c4d00004164
:020c4e00007034
:020c4f00007033
:020c5000006c36
:020c5100006938
:020c520000633d
:020c530000613e
:020c540000742a
:020c5500006934
:020c5600006f2d
:020c5700006e2d
:020c5800007c1e
:020c5900000099
:020c5a00002078
:020c5b00006136
:020c5c00002076
:020c5d00003d58
:020c5e00002074
:020c5f00007221
:020c600000751d
:020c6100006e23
:020c6200002070
:020c6300006d22
:020c6400007915
:020c650000612c
:020c660000701c
:020c670000701b
:020c680000206a
:020c6900006f1a
:020c6a00006e1a
:020c6b00006324
:020c6c00006521
:020c6d00000085
:020c6e00000084
:020c6f00002063
:020c7000003151
:020c7100002061
:020c7200003d43
:020c730000205f
:020c740000730b
:020c7500006518
:020c7600007408
:020c770000205b
:020c7800006911
:020c7900006e0b
:020c7a00007404
:020c7b00002057
:020c7c00005224
:020c7d00004134
:020c7e00004d27
:020c7f00002053
:020c8000006210
:020c81000075fc
:020c820000660a
:020c8300006609
:020c8400005f0f
:020c8500006c01
:020c8600006507
:020c8700006efd
:020c8800006703
:020c89000074f5
:020c8a00006800
:020c8b00002c3b
:020c8c00006204
:020c8d000075f0
:020c8e000066fe
:020c8f000066fd
:020c9000005f03
:020c9100006100
:020c92000064fc
:020c93000064fb
:020c94000072ec
:020c950000005d
:020c960000203c
:020c9700003229
:020c980000203a
:020c9900003d1c
:020c9a00002038
:020c9b000073e4
:020c9c000065f1
:020c9d000074e1
:020c9e00002034
:020c9f000065ee
:020ca0000078da
:020ca1000074dd
:020ca200002030
:020ca3000052fd
:020ca40000410d
:020ca500004d00
:020ca60000202c
:020ca7000070db
:020ca8000061e9
:020ca9000067e2
:020caa000065e3
:020cab00002027
:020cac000061e5
:020cad00006ed7
:020cae000064e0
:020caf00002023
:020cb0000061e1
:020cb1000064dd
:020cb2000064dc
:020cb3000072cd
:020cb4000065d9
:020cb5000073ca
:020cb6000073c9
:020cb70000003b
:020cb80000201a
:020cb9000053e6
:020cba00002018
:020cbb00003dfa
:020cbc00002016
:020cbd000053e2
:020cbe000061d3
:020cbf000076bd
:020cc0000065cd
:020cc100002011
:020cc2000062ce
:020cc3000075ba
:020cc4000066c8
:020cc5000066c7
:020cc6000065c7
:020cc7000072b9
:020cc80000002a
:020cc900002009
:020cca000052d6
:020ccb00002007
:020ccc00003de9
:020ccd00002005
:020cce000052d2
:020ccf000065be
:020cd0000073af
:020cd1000074ad
:020cd200006fb1
:020cd3000072ad
:020cd4000065b9
:020cd5000020fd
:020cd6000062ba
:020cd7000075a6
:020cd8000066b4
:020cd9000066b3
:020cda000065b3
:020cdb000072a5
:020cdc00000016
:020cdd00000015
:020cde000020f4
:020cdf000064af
:020ce0000020f2
:020ce100003dd4
:020ce2000020f0
:020ce3000064ab
:020ce400007599
:020ce500006da0
:020ce60000709c
:020ce7000020eb
:020ce8000062a8
:020ce900007594
:020cea000066a2
:020ceb000066a1
:020cec00005fa7
:020ced000061a4
:020cee000064a0
:020cef0000649f
:020cf000007290
:020cf100000001
:020cf2000020e0
:020cf30000728d
:020cf4000020de
:020cf500003dc0
:020cf6000020dc
:020cf7000052a9
:020cf800006595
:020cf900006198
:020cfa00006494
:020cfb000020d7
:020cfc00006195
:020cfd00006c89
:020cfe00006c88
:020cff000020d3
:020d000000727f
:020d010000658b
:020d0200006788
:020d0300006985
:020d040000737a
:020d0500007478
:020d0600006586
:020d0700007278
:020d0800007376
:020d09000000e8
:020d0a000020c7
:020d0b00007670
:020d0c000020c5
:020d0d00003da7
:020d0e000020c3
:020d0f0000647e
:020d1000006978
:020d110000736d
:020d120000706f
:020d1300006c72
:020d140000617c
:020d1500007963
:020d16000020bb
:020d1700007664
:020d1800006178
:020d1900007266
:020d1a0000696e
:020d1b00006175
:020d1c00006273
:020d1d00006c68
:020d1e0000656e
:020d1f0000735f
:020d20000000d1
:020d21000000d0
:020d22000020af
:020d2300006b63
:020d24000020ad
:020d2500003d8f
:020d26000020ab
:020d2700006466
:020d2800006960
:020d2900007355
:020d2a00007057
:020d2b00006c5a
:020d2c00006164
:020d2d0000794b
:020d2e000020a3
:020d2f0000635f
:020d3000006c55
:020d3100006f51
:020d320000635c
:020d3300006b53
:020d340000209d
:020d35000000bc
:020d360000209b
:020d3700006852
:020d3800002099
:020d3900003d7b
:020d3a00002097
:020d3b0000486e
:020d3c00004570
:020d3d00004c68
:020d3e00005063
:020d3f000000b2
:020d4000002091
:020d4100007838
:020d420000208f
:020d4300003d71
:020d440000208d
:020d4500006547
:020d4600007833
:020d4700006941
:020d4800007435
:020d49000000a8
:020d4a00007c2b
:020d4b00007c2a
:020d4c00007c29
:020d4d000000a4
:020d4e000003a0
:020d4f00007c26
:020d5000002081
:020d5100004858
:020d520000207f
:020d5300004559
:020d540000207d
:020d5500004c50
:020d560000207b
:020d570000504a
:020d5800002079
:020d5900007c1c
:020d5a00000097
:020d5b00002076
:020d5c00005342
:020d5d00007024
:020d5e00006132
:020d5f0000632f
:020d600000652c
:020d6100002070
:020d6200006b24
:020d6300006529
:020d6400007914
:020d650000206c
:020d6600007714
:020d6700006921
:020d6800006c1d
:020d6900006c1c
:020d6a00002067
:020d6b00007214
:020d6c00006520
:020d6d0000661e
:020d6e00007211
:020d6f0000651d
:020d700000730e
:020d7100006818
:020d720000205f
:020d730000740a
:020d7400006815
:020d7500006517
:020d760000205b
:020d7700007307
:020d7800006316
:020d7900007206
:020d7a00006512
:020d7b00006511
:020d7c00006e07
:020d7d00000074
:020d7e00002053
:020d7f0000452d
:020d8000006e03
:020d81000074fc
:020d820000650a
:020d83000072fc
:020d840000204d
:020d85000078f4
:020d860000204b
:020d87000074f6
:020d8800006ffa
:020d8900002048
:020d8a00006502
:020d8b000078ee
:020d8c000069fc
:020d8d000074f0
:020d8e00002043
:020d8f0000283a
:020d90000070f1
:020d91000072ee
:020d92000065fa
:020d93000076e8
:020d94000069f4
:020d9500006fed
:020d96000075e6
:020d97000073e7
:020d9800002039
:020d9900006deb
:020d9a000065f2
:020d9b00006ee8
:020d9c000075e0
:020d9d0000292b
:020d9e00000053
:020d9f00002032
:020da00000450c
:020da100006ee2
:020da2000074db
:020da3000065e9
:020da4000072db
:020da50000202c
:020da6000076d5
:020da7000061e9
:020da800006cdd
:020da9000075d3
:020daa000065e2
:020dab000073d3
:020dac00002025
:020dad000069db
:020dae00006ed5
:020daf00002022
:020db0000048f9
:020db1000045fb
:020db2000058e7
:020db3000041fd
:020db4000044f9
:020db5000045f7
:020db6000043f8
:020db7000049f1
:020db800004dec
:020db9000041f7
:020dba00004ceb
:020dbb00002016
:020dbc0000280d
:020dbd00003004
:020dbe00002d06
:020dbf000039f9
:020dc000002c05
:020dc100002010
:020dc2000061ce
:020dc300002d01
:020dc4000066c7
:020dc500002903
:020dc60000002b
:020dc70000002a
:020dc800007cad
:020dc900002008
:020dca000043e4
:020dcb00006fb7
:020dcc00006db8
:020dcd00006db7
:020dce000061c2
:020dcf00006eb4
:020dd0000064bd
:020dd1000073ad
:020dd2000020ff
:020dd300007ca2
:020dd40000001d
:020dd500000319
:020dd600007c9f
:020dd7000020fa
:020dd8000048d1
:020dd9000020f8
:020dda000045d2
:020ddb000020f6
:020ddc00004cc9
:020ddd000020f4
:020dde000050c3
:020ddf000020f2
:020de000007c95
:020de100000010
:020de2000020ef
:020de3000053bb
:020de40000709d
:020de5000061ab
:020de6000063a8
:020de7000065a5
:020de8000020e9
:020de900006b9d
:020dea000065a2
:020deb0000798d
:020dec000020e5
:020ded0000778d
:020dee0000699a
:020def00006c96
:020df000006c95
:020df1000020e0
:020df20000728d
:020df300006599
:020df400006697
:020df50000728a
:020df600006596
:020df700007387
:020df800006891
:020df9000020d8
:020dfa00007483
:020dfb0000688e
:020dfc00006590
:020dfd000020d4
:020dfe00007380
:020dff0000638f
:020e000000727e
:020e010000658a
:020e0200006589
:020e0300006e7f
:020e04000000ec
:020e05000020cb
:020e06000045a5
:020e0700006e7b
:020e0800007474
:020e0900006582
:020e0a00007274
:020e0b000020c5
:020e0c0000786c
:020e0d000020c3
:020e0e0000746e
:020e0f00006f72
:020e10000020c0
:020e110000657a
:020e1200007866
:020e1300006974
:020e1400007468
:020e15000020bb
:020e16000028b2
:020e1700007069
:020e1800007266
:020e1900006572
:020e1a00007660
:020e1b0000696c
:020e1c00006f65
:020e1d0000755e
:020e1e0000735f
:020e1f000020b1
:020e2000006d63
:020e210000656a
:020e2200006e60
:020e2300007558
:020e24000029a3
:020e25000000cb
:020e26000020aa
:020e2700004584
:020e2800006e5a
:020e2900007453
:020e2a00006561
:020e2b00007253
:020e2c000020a4
:020e2d0000764d
:020e2e00006161
:020e2f00006c55
:020e300000754b
:020e310000655a
:020e320000734b
:020e330000209d
:020e3400006953
:020e3500006e4d
:020e360000209a
:020e3700004871
:020e3800004573
:020e390000585f
:020e3a00004175
:020e3b00004471
:020e3c0000456f
:020e3d00004370
:020e3e00004969
:020e3f00004d64
:020e400000416f
:020e4100004c63
:020e42000000ae
:020e43000000ad
:020e4400007c30
:020e450000208b
:020e4600004d5d
:020e4700006544
:020e4800006d3b
:020e4900006f38
:020e4a00007234
:020e4b0000792c
:020e4c00002084
:020e4d00004360
:020e4e00006f33
:020e4f00006d34
:020e5000006d33
:020e510000613e
:020e5200006e30
:020e5300006439
:020e5400007329
:020e550000207b
:020e5600007c1e
:020e5700000099
:020e5800002078
:020e5900004156
:020e5a00002076
:020e5b00003d58
:020e5c00002074
:020e5d00004d46
:020e5e0000652d
:020e5f00006d24
:020e6000006f21
:020e610000721d
:020e6200007915
:020e630000206d
:020e640000612b
:020e6500006328
:020e6600006327
:020e6700006524
:020e6800007315
:020e6900007314
:020e6a00002066
:020e6b0000285d
:020e6c00007410
:020e6d00006f14
:020e6e0000671b
:020e6f0000671a
:020e7000006c14
:020e710000651a
:020e7200002955
:020e730000007d
:020e740000205c
:020e7500004239
:020e760000205a
:020e7700003d3c
:020e7800002058
:020e7900004d2a
:020e7a00006511
:020e7b00006d08
:020e7c00006f05
:020e7d00007201
:020e7e000079f9
:020e7f00002051
:020e800000620e
:020e81000079f6
:020e82000074fa
:020e8300006508
:020e840000204c
:020e8500006dfe
:020e8600006ffb
:020e8700006405
:020e8800006503
:020e8900002047
:020e8a0000283e
:020e8b000074f1
:020e8c00006ff5
:020e8d000067fc
:020e8e000067fb
:020e8f00006cf5
:020e90000065fb
:020e9100002936
:020e920000005e
:020e930000203d
:020e9400006def
:020e950000203b
:020e9600003d1d
:020e9700002039
:020e9800004d0b
:020e99000065f2
:020e9a00006de9
:020e9b00006fe6
:020e9c000072e2
:020e9d000079da
:020e9e00002032
:020e9f000072df
:020ea0000065eb
:020ea1000061ee
:020ea2000064ea
:020ea300002f1e
:020ea4000077d5
:020ea5000072d9
:020ea6000069e1
:020ea7000074d5
:020ea8000065e3
:020ea900003a0d
:020eaa00002026
:020eab0000281d
:020eac00004df7
:020ead000045fe
:020eae00004df5
:020eaf00002021
:020eb0000041ff
:020eb1000044fb
:020eb2000044fa
:020eb3000052eb
:020eb400002913
:020eb50000003b
:020eb60000201a
:020eb700005fda
:020eb800005fd9
:020eb900005fd8
:020eba00002016
:020ebb00005bda
:020ebc00006dc7
:020ebd00005dd6
:020ebe000061d1
:020ebf000064cd
:020ec0000064cc
:020ec1000072bd
:020ec200005bd3
:020ec3000052db
:020ec4000045e7
:020ec5000054d7
:020ec600005dcd
:020ec700002009
:020ec8000072b6
:020ec9000065c2
:020eca000061c5
:020ecb000064c1
:020ecc00002004
:020ecd000061c2
:020ece00006eb4
:020ecf000064bd
:020ed000002000
:020ed1000073ac
:020ed2000065b9
:020ed3000074a9
:020ed4000020fc
:020ed5000061ba
:020ed6000064b6
:020ed7000064b5
:020ed8000072a6
:020ed9000065b2
:020eda000073a3
:020edb000073a2
:020edc00000014
:020edd000020f3
:020ede00005fb3
:020edf00005fb2
:020ee000005fb1
:020ee1000020ef
:020ee200005bb3
:020ee300006da0
:020ee400005daf
:020ee5000061aa
:020ee6000064a6
:020ee7000064a5
:020ee800007296
:020ee900002cdb
:020eea00007690
:020eeb000061a4
:020eec00006c98
:020eed00005ba8
:020eee000052b0
:020eef000045bc
:020ef0000054ac
:020ef100005da2
:020ef2000020de
:020ef300007786
:020ef40000728a
:020ef500006992
:020ef600007486
:020ef700006594
:020ef8000020d8
:020ef900007681
:020efa00006195
:020efb00006c89
:020efc0000757f
:020efd0000658e
:020efe000000f2
:020eff000020d1
:020f000000648b
:020f01000020ce
:020f0200003db0
:020f03000020cc
:020f0400006487
:020f0500007575
:020f0600006d7c
:020f0700007078
:020f08000020c7
:020f0900006d79
:020f0a00006580
:020f0b00006d77
:020f0c00006f74
:020f0d00007270
:020f0e00007968
:020f0f000020c0
:020f1000006679
:020f110000726c
:020f1200006f6e
:020f1300006d6f
:020f14000020bb
:020f1500006179
:020f1600006475
:020f1700006474
:020f1800007265
:020f1900006571
:020f1a00007362
:020f1b00007361
:020f1c000020b3
:020f1d000030a2
:020f1e000000d1
:020f1f000020b0
:020f2000006e61
:020f21000020ae
:020f2200003d90
:020f23000020ac
:020f2400006e5d
:020f2500006565
:020f2600007851
:020f2700007454
:020f28000020a7
:020f2900003294
:020f2a00003590
:020f2b0000368e
:020f2c000020a3
:020f2d00006d55
:020f2e0000655c
:020f2f00006d53
:020f3000006f50
:020f310000724c
:020f3200007944
:020f330000209c
:020f3400006655
:020f3500007248
:020f3600006f4a
:020f3700006d4b
:020f3800002097
:020f3900006c4a
:020f3a00006154
:020f3b00007341
:020f3c0000743f
:020f3d00002092
:020f3e00006150
:020f3f0000644c
:020f400000644b
:020f410000723c
:020f4200006548
:020f4300007339
:020f4400007338
:020f45000000aa
:020f4600002089
:020f4700006642
:020f4800002087
:020f4900003d69
:020f4a00002085
:020f4b0000663e
:020f4c0000693a
:020f4d00006c36
:020f4e00006c35
:020f4f00002080
:020f5000006d32
:020f5100006539
:020f5200006d30
:020f5300006f2d
:020f5400007229
:020f5500007921
:020f5600002079
:020f5700007721
:020f580000692e
:020f5900007422
:020f5a0000682d
:020f5b00002074
:020f5c0000761d
:020f5d00006131
:020f5e00006c25
:020f5f0000751b
:020f600000652a
:020f610000206e
:020f6200002b62
:020f630000206c
:020f6400006922
:020f6500006e1c
:020f6600006326
:020f6700007216
:020f6800006522
:020f6900006d19
:020f6a00006520
:020f6b00006e16
:020f6c0000740f
:020f6d00000082
:020f6e00002061
:020f6f00005f21
:020f7000005f20
:020f7100005f1f
:020f720000205d
:020f730000611b
:020f7400006417
:020f7500006416
:020f7600007207
:020f7700002c4c
:020f7800007601
:020f7900006115
:020f7a00006c09
:020f7b000075ff
:020f7c0000650e
:020f7d00002052
:020f7e00003d34
:020f7f00002050
:020f800000610e
:020f810000610d
:020f820000610c
:020f830000610b
:020f8400002c3f
:020f85000076f4
:020f86000076f3
:020f87000076f2
:020f88000076f1
:020f8900002046
:020f8a0000283d
:020f8b00006301
:020f8c00006ff4
:020f8d00006df5
:020f8e00006df4
:020f8f000061ff
:020f900000203f
:020f9100006fef
:020f92000072eb
:020f930000203c
:020f94000073e8
:020f95000070ea
:020f96000061f8
:020f97000063f5
:020f98000065f2
:020f990000292d
:020f9a00000055
:020f9b00002034
:020f9c00006ce7
:020f9d00002032
:020f9e00003d14
:020f9f00002030
